{
  "_format": "hh-sol-artifact-1",
  "contractName": "CollateralReservationsFacet",
  "sourceName": "contracts/assetManager/facets/CollateralReservationsFacet.sol",
  "abi": [
    {
      "inputs": [],
      "name": "AgentNotInMintQueue",
      "type": "error"
    },
    {
      "inputs": [],
      "name": "AgentNotWhitelisted",
      "type": "error"
    },
    {
      "inputs": [],
      "name": "AgentsFeeTooHigh",
      "type": "error"
    },
    {
      "inputs": [],
      "name": "CannotMintZeroLots",
      "type": "error"
    },
    {
      "inputs": [],
      "name": "DivisionByZero",
      "type": "error"
    },
    {
      "inputs": [],
      "name": "EmergencyPauseActive",
      "type": "error"
    },
    {
      "inputs": [],
      "name": "InappropriateFeeAmount",
      "type": "error"
    },
    {
      "inputs": [],
      "name": "InvalidAgentStatus",
      "type": "error"
    },
    {
      "inputs": [],
      "name": "InvalidAgentVaultAddress",
      "type": "error"
    },
    {
      "inputs": [],
      "name": "MintingCapExceeded",
      "type": "error"
    },
    {
      "inputs": [],
      "name": "MintingPaused",
      "type": "error"
    },
    {
      "inputs": [],
      "name": "NotAttached",
      "type": "error"
    },
    {
      "inputs": [],
      "name": "NotEnoughFreeCollateral",
      "type": "error"
    },
    {
      "inputs": [],
      "name": "NotWhitelisted",
      "type": "error"
    },
    {
      "inputs": [],
      "name": "OnlyAssetManagerController",
      "type": "error"
    },
    {
      "inputs": [],
      "name": "ReentrancyGuardReentrantCall",
      "type": "error"
    },
    {
      "inputs": [],
      "name": "ReentrancyGuardRequired",
      "type": "error"
    },
    {
      "inputs": [],
      "name": "TransferFailed",
      "type": "error"
    },
    {
      "anonymous": false,
      "inputs": [
        {
          "indexed": true,
          "internalType": "address",
          "name": "agentVault",
          "type": "address"
        },
        {
          "indexed": true,
          "internalType": "address",
          "name": "minter",
          "type": "address"
        },
        {
          "indexed": true,
          "internalType": "uint256",
          "name": "collateralReservationId",
          "type": "uint256"
        },
        {
          "indexed": false,
          "internalType": "uint256",
          "name": "valueUBA",
          "type": "uint256"
        },
        {
          "indexed": false,
          "internalType": "uint256",
          "name": "feeUBA",
          "type": "uint256"
        },
        {
          "indexed": false,
          "internalType": "uint256",
          "name": "firstUnderlyingBlock",
          "type": "uint256"
        },
        {
          "indexed": false,
          "internalType": "uint256",
          "name": "lastUnderlyingBlock",
          "type": "uint256"
        },
        {
          "indexed": false,
          "internalType": "uint256",
          "name": "lastUnderlyingTimestamp",
          "type": "uint256"
        },
        {
          "indexed": false,
          "internalType": "string",
          "name": "paymentAddress",
          "type": "string"
        },
        {
          "indexed": false,
          "internalType": "bytes32",
          "name": "paymentReference",
          "type": "bytes32"
        },
        {
          "indexed": false,
          "internalType": "address",
          "name": "executor",
          "type": "address"
        },
        {
          "indexed": false,
          "internalType": "uint256",
          "name": "executorFeeNatWei",
          "type": "uint256"
        }
      ],
      "name": "CollateralReserved",
      "type": "event"
    },
    {
      "inputs": [
        {
          "internalType": "uint256",
          "name": "_lots",
          "type": "uint256"
        }
      ],
      "name": "collateralReservationFee",
      "outputs": [
        {
          "internalType": "uint256",
          "name": "_reservationFeeNATWei",
          "type": "uint256"
        }
      ],
      "stateMutability": "view",
      "type": "function"
    },
    {
      "inputs": [
        {
          "internalType": "address",
          "name": "_agentVault",
          "type": "address"
        },
        {
          "internalType": "uint256",
          "name": "_lots",
          "type": "uint256"
        },
        {
          "internalType": "uint256",
          "name": "_maxMintingFeeBIPS",
          "type": "uint256"
        },
        {
          "internalType": "address payable",
          "name": "_executor",
          "type": "address"
        }
      ],
      "name": "reserveCollateral",
      "outputs": [
        {
          "internalType": "uint256",
          "name": "_collateralReservationId",
          "type": "uint256"
        }
      ],
      "stateMutability": "payable",
      "type": "function"
    }
  ],
  "bytecode": "0x6080604052348015600f57600080fd5b506123888061001f6000396000f3fe6080604052600436106100295760003560e01c8063275a7bfc1461002e578063368a359314610053575b600080fd5b61004161003c366004611e2d565b610073565b60405190815260200160405180910390f35b34801561005f57600080fd5b5061004161006e366004611e77565b610671565b600061007d6106c9565b610085610714565b61008d61077a565b6000610098866107c4565b90506100a38161084d565b60006100ae82610864565b7fec7e8c1c441439dd40959777f4c577ea0cd42fcc1dbe59d2bd0f5d9c55df8dc654909150600080516020612313833981519152906001600160401b03161561010a576040516375ab03ab60e11b815260040160405180910390fd5b600483015465010000000000900463ffffffff161515806101335750610133600d84013361090e565b6101505760405163082f445360e31b815260040160405180910390fd5b60008711610171576040516359ed140d60e01b815260040160405180910390fd5b6001600484015460ff16600581111561018c5761018c611e90565b146101aa5760405163aa2b63b360e01b815260040160405180910390fd5b866101b58385610935565b10156101d45760405163d78c667760e01b815260040160405180910390fd5b6004830154600160481b900461ffff1686101561020457604051631e1b74ed60e11b815260040160405180910390fd5b600061020f88610943565b905061022e8461021f8684610996565b6102299084611ebc565b6109c4565b600484015460009065010000000000900463ffffffff168103610252576000610264565b61026484602001516040015183610a6f565b90508034101561028757604051632162c18960e11b815260040160405180910390fd5b61028f610aaf565b600e840180546000906102ac9084906001600160401b0316611ebc565b82546001600160401b0391821661010093840a9081029083021990911617909255600e860154604080516101c081018252600060208201819052918101829052606081018290526080810182905260a0810182905260c0810182905260e0810182905292830181905261012083018190526101408301819052610160830181905261018083018190526101a08301528583168252600489015492169250906103719061036c90600160481b900461ffff1661036687610acd565b90610b0e565b610b1d565b6001600160801b0316608082015261038883610b1d565b6001600160801b031660a082015260048701546103b190600160581b900461ffff166001611edb565b61ffff1660e08201526001600160a01b03808d1660c083015233610100830152891615610419576001600160a01b038916610140820152610409633b9aca006103fa8534611ef5565b6104049190611f1e565b610b8f565b6001600160401b03166101608201525b600080610424610bf7565b600f8901546201000090046001600160401b03908116602087015282811660408701528116606086015290925090506000610120840181905250600084815260068801602090815260409182902085518154928701519387015160608801516001600160401b03908116600160c01b026001600160c01b03928216600160801b908102939093166001600160801b03978316600160401b026fffffffffffffffffffffffffffffffff19909716929094169190911794909417851691909117929092178155608086015160a087015184169092029190921617600182015560c084015160028201805460e087015161ffff16600160a01b9081026001600160b01b03199092166001600160a01b03948516179190911790915561010086015160038085018054929094166001600160a01b0319831681178555610120890151899695909490936001600160a81b03191690911791849081111561058957610589611e90565b02179055506101408201516004820180546101608501516001600160a01b039093166001600160e01b031990911617600160a01b6001600160401b039384160217905561018083015160058301805467ffffffffffffffff1916919092161790556101a090910151600690910155610602898486610d09565b6101408301516001600160a01b031615801561061d57508434115b1561063557610635336106308734611ef5565b610dd1565b509197505050505050505061066960017f0cd2207518cd3e5213e2c6dbe63d55b60aa893c194a427b7d7f1600408fd5bde55565b949350505050565b7fec7e8c1c441439dd40959777f4c577ea0cd42fcc1dbe59d2bd0f5d9c55df8dc5546000906000805160206123138339815191529082906106b59061ffff16610e5f565b9050610669816106c486610943565b610a6f565b7fec7e8c1c441439dd40959777f4c577ea0cd42fcc1dbe59d2bd0f5d9c55df8dc754600160881b900460ff1661071257604051630d6e7efb60e41b815260040160405180910390fd5b565b7fec7e8c1c441439dd40959777f4c577ea0cd42fcc1dbe59d2bd0f5d9c55df8dc6546000805160206123138339815191529042600160401b9091046001600160401b031611156107775760405163909b191760e01b815260040160405180910390fd5b50565b7f0cd2207518cd3e5213e2c6dbe63d55b60aa893c194a427b7d7f1600408fd5bde8054600119016107be57604051633ee5aeb560e01b815260040160405180910390fd5b60029055565b604081901b68010000000000000000600160e01b03166000805160206122f38339815191521860048101546000919060ff168281600581111561080957610809611e90565b141580156108295750600581600581111561082657610826611e90565b14155b6108465760405163d68a46c560e01b815260040160405180910390fd5b5092915050565b6001810154610777906001600160a01b0316610eaa565b6108cf6040805160c081019091526000606082018181526080830182905260a083019190915281908152604080516060810182526000808252602082810182905292820152910190815260408051606081018252600080825260208281018290529282015291015290565b60006108da83610f5e565b905060405180606001604052806108f08561101b565b815260200182815260200161090585846110cc565b90529392505050565b6001600160a01b038116600090815260018301602052604081205415155b90505b92915050565b600061092c838360016112a6565b7f4f24f5c433db0962dac0d2c8b84197a6e6c7cc4e5d9ebe1916a1b6193da2f347546000906000805160206122d38339815191529061098f90610404906001600160401b031685611f32565b9392505050565b6000806109a283610acd565b905060006109b085836112fe565b90506109bb8161133c565b95945050505050565b6000805160206123138339815191526109dc8261137d565b6005830180548391906000906109fc9084906001600160401b0316611ebc565b92506101000a8154816001600160401b0302191690836001600160401b031602179055508181600e0160188282829054906101000a90046001600160401b0316610a469190611ebc565b92506101000a8154816001600160401b0302191690836001600160401b03160217905550505050565b600080610a85836001600160401b0316856114c2565b90506106696000805160206122d3833981519152600c01548290600160401b900461ffff16610b0e565b6000610abd6103e843611f49565b610ac8906001611f5d565b905090565b600080516020612333833981519152546000906000805160206122d38339815191529061098f90600160901b90046001600160401b03908116908516611f32565b600061092c83836127106114d8565b60006001600160801b03821115610b8b5760405162461bcd60e51b815260206004820152602760248201527f53616665436173743a2076616c756520646f65736e27742066697420696e20316044820152663238206269747360c81b60648201526084015b60405180910390fd5b5090565b60006001600160401b03821115610b8b5760405162461bcd60e51b815260206004820152602660248201527f53616665436173743a2076616c756520646f65736e27742066697420696e203660448201526534206269747360d01b6064820152608401610b82565b7fec7e8c1c441439dd40959777f4c577ea0cd42fcc1dbe59d2bd0f5d9c55df8dc5546000908190600080516020612313833981519152906000805160206122d3833981519152908390600160901b90046001600160401b0316610c5942610b8f565b610c639190611f70565b600c830154909150600090610c8d9063ffffffff166103fa6001600160401b0385166103e8611f32565b600d840154600f8601549192506001600160401b03600160981b909104811691610cbf91849162010000900416611ebc565b610cc99190611ebc565b600e840154600f8601549197506001600160401b0390811691610cf5918591600160501b900416611ebc565b610cff9190611ebc565b9450505050509091565b808261010001516001600160a01b0316610d33856000805160206122f38339815191521860401c90565b6001600160a01b03167f7e28eb3b9a2077a4fa0559357b1647ec5eabf18d7adf1539c4e8fb1445a5fc09610d6a8660000151610acd565b86608001518760200151886040015189606001518b600201610d8b8b6115dc565b8c6101400151633b9aca008e61016001516001600160401b0316610daf9190611f32565b604051610dc499989796959493929190611fc9565b60405180910390a4505050565b610dd9611606565b8015610e5b576000826001600160a01b031682620186a090604051600060405180830381858888f193505050503d8060008114610e32576040519150601f19603f3d011682016040523d82523d6000602084013e610e37565b606091505b5050905080610e59576040516312171d8360e31b815260040160405180910390fd5b505b5050565b6000806000805160206123138339815191529050610ea0816000018481548110610e8b57610e8b6120df565b90600052602060002090600402016000611648565b5090949350505050565b7f4f24f5c433db0962dac0d2c8b84197a6e6c7cc4e5d9ebe1916a1b6193da2f341546001600160a01b0316604051633af32abf60e01b81526001600160a01b0383811660048301529190911690633af32abf90602401602060405180830381865afa158015610f1d573d6000803e3d6000fd5b505050506040513d601f19601f82011682018060405250810190610f4191906120f5565b61077757604051631408f3ef60e31b815260040160405180910390fd5b610f836040805160608101909152806000815260200160008152602001600081525090565b6000610f8e83611807565b604080516060810182526001815285548251634ac8eb5f60e01b8152925193945090926020808501936001600160a01b0390931692634ac8eb5f92600480830193928290030181865afa158015610fe9573d6000803e3d6000fd5b505050506040513d601f19601f8201168201806040525081019061100d9190612117565b815260200161090583611856565b6110406040805160608101909152806000815260200160008152602001600081525090565b600061104b8361186c565b6040805160608101909152909150806000815282546020909101906001600160a01b03166370a082316000805160206122f3833981519152871860401c6040516001600160e01b031960e084901b1681526001600160a01b039091166004820152602401602060405180830381865afa158015610fe9573d6000803e3d6000fd5b6110f16040805160608101909152806000815260200160008152602001600081525090565b8254604080516332f7ce0b60e21b815290516000926001600160a01b03169163cbdf382c9160048083019260209291908290030181865afa15801561113a573d6000803e3d6000fd5b505050506040513d601f19601f8201168201806040525081019061115e9190612130565b905060006001600160a01b0382166370a082316000805160206122f3833981519152871860401c6040516001600160e01b031960e084901b1681526001600160a01b039091166004820152602401602060405180830381865afa1580156111c9573d6000803e3d6000fd5b505050506040513d601f19601f820116820180604052508101906111ed9190612117565b90506000826001600160a01b03166318160ddd6040518163ffffffff1660e01b8152600401602060405180830381865afa15801561122f573d6000803e3d6000fd5b505050506040513d601f19601f820116820180604052508101906112539190612117565b90506000856020015160000361126d578560400151611282565b602086015160408701516112829184906114d8565b60408051606081018252600281526020810195909552840152509095945050505050565b6000806112b8856000015185856118a3565b905060006112cb866020015186866118a3565b905060006112de876040015187876118a3565b90506112f3836112ee84846118e4565b6118e4565b979650505050505050565b6004820154600090819061131e908490600160481b900461ffff16610b0e565b90506106698185600401600b9054906101000a900461ffff166118fa565b600080516020612333833981519152546000906000805160206122d38339815191529061098f9061040490600160901b90046001600160401b031685611f1e565b7f4f24f5c433db0962dac0d2c8b84197a6e6c7cc4e5d9ebe1916a1b6193da2f34754600080516020612313833981519152906000805160206122d383398151915290600160581b90046001600160401b031660008190036113de5750505050565b6001820154604080516318160ddd60e01b815290516000926001600160a01b0316916318160ddd9160048083019260209291908290030181865afa15801561142a573d6000803e3d6000fd5b505050506040513d601f19601f8201168201806040525081019061144e9190612117565b9050600061145b8261133c565b600e86015461147a9190600160c01b90046001600160401b0316611ebc565b6001600160401b0316905082866001600160401b03168261149b9190611f5d565b11156114ba5760405163c4d282e360e01b815260040160405180910390fd5b505050505050565b600061092c826114d46009600a612234565b8591905b60008082116114fa576040516323d359a360e01b815260040160405180910390fd5b8360000361150a5750600061098f565b8383028385828161151d5761151d611f08565b040361153b5782818161153257611532611f08565b0491505061098f565b5060006115488386611f1e565b905060006115568487611f49565b905060006115648587611f1e565b905060006115728688611f49565b90508561157f8285611f32565b6115899190611f1e565b6115938385611f32565b61159d8387611f32565b886115a88689611f32565b6115b29190611f32565b6115bc9190611f5d565b6115c69190611f5d565b6115d09190611f5d565b98975050505050505050565b60006001600160401b038211156115f5576115f5612240565b5067464250526641000160c01b1790565b7f0cd2207518cd3e5213e2c6dbe63d55b60aa893c194a427b7d7f1600408fd5bde5460021461071257604051635bff566960e01b815260040160405180910390fd5b6000806000806000806116e788600101805461166390611f8f565b80601f016020809104026020016040519081016040528092919081815260200182805461168f90611f8f565b80156116dc5780601f106116b1576101008083540402835291602001916116dc565b820191906000526020600020905b8154815290600101906020018083116116bf57829003601f168201915b505050505088611912565b8a549295509093509150600160f01b900460ff161561172e57875460009061171d90600160a81b900460ff166001838786611a00565b965091945084935061180092505050565b60008060006117c98b600201805461174590611f8f565b80601f016020809104026020016040519081016040528092919081815260200182805461177190611f8f565b80156117be5780601f10611793576101008083540402835291602001916117be565b820191906000526020600020905b8154815290600101906020018083116117a157829003601f168201915b50505050508b611912565b8d5492955090935091506000906117ed90600160a81b900460ff1685848a89611a00565b9950949750909550611800945050505050565b9250925092565b600080600080516020612313833981519152600484015481549192508291630100000090910461ffff16908110611840576118406120df565b9060005260206000209060040201915050919050565b6000611863826000611648565b50909392505050565b60008060008051602061231383398151915260048401548154919250829161010090910461ffff16908110611840576118406120df565b6000806118b08585611a87565b905060006118bf868686611aa4565b9050806000036118d05760006118da565b6118da8183611f1e565b9695505050505050565b60008183106118f3578161092c565b5090919050565b600061092c61190d8461ffff8516610b0e565b611af0565b7f4f24f5c433db0962dac0d2c8b84197a6e6c7cc4e5d9ebe1916a1b6193da2f34454600090819081906000805160206122d3833981519152906001600160a01b031685156119d45760405163e4a0a55b60e01b81526001600160a01b0382169063e4a0a55b90611986908a90600401612256565b606060405180830381865afa1580156119a3573d6000803e3d6000fd5b505050506040513d601f19601f820116820180604052508101906119c791906122a4565b9450945094505050611800565b60405163524f388960e01b81526001600160a01b0382169063524f388990611986908a90600401612256565b60006000805160206122d3833981519152816009611a1e878a611f5d565b611a289190611f5d565b600a830154909150600090611a48908690600160a81b900460ff16611f5d565b905080821015611a5a57611a5a612240565b611a7a611a678284611ef5565b611a7290600a612234565b87908a6114d8565b9998505050505050505050565b600080611a948484611b37565b9050610669846020015182611c61565b7f4f24f5c433db0962dac0d2c8b84197a6e6c7cc4e5d9ebe1916a1b6193da2f347546000906000805160206122d3833981519152906109bb90869086906001600160401b031686611c7b565b600080516020612333833981519152546000906000805160206122d383398151915290611b2d90600160901b90046001600160401b031684611f49565b61098f9084611ef5565b6000806000611b4a848660000151611cf2565b60058601549193509150600090611b73906001600160401b03600160401b820481169116611f5d565b90506000611b8984610366848a604001516114c2565b90506000600188516002811115611ba257611ba2611e90565b14611bc1576005870154600160801b90046001600160401b0316611bd7565b6005870154600160c01b90046001600160401b03165b90506000611bf685610366846001600160401b03168c604001516114c2565b9050600060018a516002811115611c0f57611c0f611e90565b03611c1b576000611c33565b8951611c28908a90611dbc565b546001600160801b03165b6001600160801b0316905080611c498386611f5d565b611c539190611f5d565b9a9950505050505050505050565b6000818311611c7157600061092c565b61092c8284611ef5565b60008082611c8a576000611cb3565b6004850154611cb39061ffff600160581b8204811691610366918891600160481b900416610b0e565b90506000611cc18286611f5d565b90506000611cd38289604001516114c2565b90506000611ce5888a60000151611cf2565b509050611a7a8282610b0e565b6000806002836002811115611d0957611d09611e90565b03611d3457505060008051602061233383398151915254640100000000900463ffffffff1680611db5565b6001836002811115611d4857611d48611e90565b03611d8357611d5684611807565b60030154600485015463ffffffff9182169250611d7c91600160881b9091041682611e09565b9150611db5565b611d8c8461186c565b60030154600485015463ffffffff9182169250611db291600160681b9091041682611e09565b91505b9250929050565b60006001826002811115611dd257611dd2611e90565b03611ddf57611ddf612240565b6000826002811115611df357611df3611e90565b14611e01578260090161092c565b505060080190565b60008183116118f3578161092c565b6001600160a01b038116811461077757600080fd5b60008060008060808587031215611e4357600080fd5b8435611e4e81611e18565b935060208501359250604085013591506060850135611e6c81611e18565b939692955090935050565b600060208284031215611e8957600080fd5b5035919050565b634e487b7160e01b600052602160045260246000fd5b634e487b7160e01b600052601160045260246000fd5b6001600160401b03818116838216019081111561092f5761092f611ea6565b61ffff818116838216019081111561092f5761092f611ea6565b8181038181111561092f5761092f611ea6565b634e487b7160e01b600052601260045260246000fd5b600082611f2d57611f2d611f08565b500490565b808202811582820484141761092f5761092f611ea6565b600082611f5857611f58611f08565b500690565b8082018082111561092f5761092f611ea6565b6001600160401b03828116828216039081111561092f5761092f611ea6565b600181811c90821680611fa357607f821691505b602082108103611fc357634e487b7160e01b600052602260045260246000fd5b50919050565b8981526001600160801b03891660208201526001600160401b03881660408201526001600160401b03871660608201526001600160401b038616608082015261012060a08201526000808654818160011c9050600182168061202c57607f821691505b60208210810361204a57634e487b7160e01b84526022600452602484fd5b6101208601829052610140860181801561206b5760018114612081576120af565b60ff198516825283151560051b820195506120af565b60008c81526020902060005b858110156120a95781548482015260019091019060200161208d565b83019650505b505050505060c0830195909552506001600160a01b039290921660e0830152610100909101529695505050505050565b634e487b7160e01b600052603260045260246000fd5b60006020828403121561210757600080fd5b8151801515811461098f57600080fd5b60006020828403121561212957600080fd5b5051919050565b60006020828403121561214257600080fd5b815161098f81611e18565b6001815b60018411156121885780850481111561216c5761216c611ea6565b600184161561217a57908102905b60019390931c928002612151565b935093915050565b60008261219f5750600161092f565b816121ac5750600061092f565b81600181146121c257600281146121cc576121e8565b600191505061092f565b60ff8411156121dd576121dd611ea6565b50506001821b61092f565b5060208310610133831016604e8410600b841016171561220b575081810a61092f565b612218600019848461214d565b806000190482111561222c5761222c611ea6565b029392505050565b600061092c8383612190565b634e487b7160e01b600052600160045260246000fd5b602081526000825180602084015260005b818110156122845760208186018101516040868401015201612267565b506000604082850101526040601f19601f83011684010191505092915050565b6000806000606084860312156122b957600080fd5b505081516020830151604090930151909492935091905056fe4f24f5c433db0962dac0d2c8b84197a6e6c7cc4e5d9ebe1916a1b6193da2f33a5bebac0595fee029d42bb673937f5f1cb81cf8641382bc17774635de9b7d7965ec7e8c1c441439dd40959777f4c577ea0cd42fcc1dbe59d2bd0f5d9c55df8db64f24f5c433db0962dac0d2c8b84197a6e6c7cc4e5d9ebe1916a1b6193da2f346a2646970667358221220c42a04352757717300248cc84ba122d3baa0fd8dd77f423f973906355af9997f64736f6c634300081b0033",
  "linkReferences": {},
  "deployedLinkReferences": {}
}