{
  "_format": "hh-sol-artifact-1",
  "contractName": "MintingFacet",
  "sourceName": "contracts/assetManager/facets/MintingFacet.sol",
  "abi": [
    {
      "inputs": [],
      "name": "AgentNotWhitelisted",
      "type": "error"
    },
    {
      "inputs": [],
      "name": "CannotMintZeroLots",
      "type": "error"
    },
    {
      "inputs": [],
      "name": "DivisionByZero",
      "type": "error"
    },
    {
      "inputs": [],
      "name": "EmergencyPauseActive",
      "type": "error"
    },
    {
      "inputs": [],
      "name": "FreeUnderlyingBalanceToSmall",
      "type": "error"
    },
    {
      "inputs": [],
      "name": "InvalidAgentVaultAddress",
      "type": "error"
    },
    {
      "inputs": [],
      "name": "InvalidChain",
      "type": "error"
    },
    {
      "inputs": [],
      "name": "InvalidCrtId",
      "type": "error"
    },
    {
      "inputs": [],
      "name": "InvalidMintingReference",
      "type": "error"
    },
    {
      "inputs": [],
      "name": "InvalidSelfMintReference",
      "type": "error"
    },
    {
      "inputs": [],
      "name": "LegalPaymentNotProven",
      "type": "error"
    },
    {
      "inputs": [],
      "name": "MintingCapExceeded",
      "type": "error"
    },
    {
      "inputs": [],
      "name": "MintingPaused",
      "type": "error"
    },
    {
      "inputs": [],
      "name": "MintingPaymentTooOld",
      "type": "error"
    },
    {
      "inputs": [],
      "name": "MintingPaymentTooSmall",
      "type": "error"
    },
    {
      "inputs": [],
      "name": "NotAttached",
      "type": "error"
    },
    {
      "inputs": [],
      "name": "NotEnoughFreeCollateral",
      "type": "error"
    },
    {
      "inputs": [],
      "name": "NotMintingAgentsAddress",
      "type": "error"
    },
    {
      "inputs": [],
      "name": "NotWhitelisted",
      "type": "error"
    },
    {
      "inputs": [],
      "name": "OnlyAgentVaultOwner",
      "type": "error"
    },
    {
      "inputs": [],
      "name": "OnlyAssetManagerController",
      "type": "error"
    },
    {
      "inputs": [],
      "name": "OnlyMinterExecutorOrAgent",
      "type": "error"
    },
    {
      "inputs": [],
      "name": "PaymentAlreadyConfirmed",
      "type": "error"
    },
    {
      "inputs": [],
      "name": "PaymentFailed",
      "type": "error"
    },
    {
      "inputs": [],
      "name": "ReentrancyGuardReentrantCall",
      "type": "error"
    },
    {
      "inputs": [],
      "name": "SelfMintInvalidAgentStatus",
      "type": "error"
    },
    {
      "inputs": [],
      "name": "SelfMintNotAgentsAddress",
      "type": "error"
    },
    {
      "inputs": [],
      "name": "SelfMintPaymentTooOld",
      "type": "error"
    },
    {
      "inputs": [],
      "name": "SelfMintPaymentTooSmall",
      "type": "error"
    },
    {
      "anonymous": false,
      "inputs": [
        {
          "indexed": false,
          "internalType": "uint256",
          "name": "underlyingBlockNumber",
          "type": "uint256"
        },
        {
          "indexed": false,
          "internalType": "uint256",
          "name": "underlyingBlockTimestamp",
          "type": "uint256"
        },
        {
          "indexed": false,
          "internalType": "uint256",
          "name": "updatedAt",
          "type": "uint256"
        }
      ],
      "name": "CurrentUnderlyingBlockUpdated",
      "type": "event"
    },
    {
      "anonymous": false,
      "inputs": [
        {
          "indexed": true,
          "internalType": "address",
          "name": "agentVault",
          "type": "address"
        },
        {
          "indexed": false,
          "internalType": "uint256",
          "name": "dustUBA",
          "type": "uint256"
        }
      ],
      "name": "DustChanged",
      "type": "event"
    },
    {
      "anonymous": false,
      "inputs": [
        {
          "indexed": true,
          "internalType": "address",
          "name": "agentVault",
          "type": "address"
        },
        {
          "indexed": true,
          "internalType": "uint256",
          "name": "collateralReservationId",
          "type": "uint256"
        },
        {
          "indexed": false,
          "internalType": "uint256",
          "name": "mintedAmountUBA",
          "type": "uint256"
        },
        {
          "indexed": false,
          "internalType": "uint256",
          "name": "agentFeeUBA",
          "type": "uint256"
        },
        {
          "indexed": false,
          "internalType": "uint256",
          "name": "poolFeeUBA",
          "type": "uint256"
        }
      ],
      "name": "MintingExecuted",
      "type": "event"
    },
    {
      "anonymous": false,
      "inputs": [
        {
          "indexed": true,
          "internalType": "address",
          "name": "agentVault",
          "type": "address"
        },
        {
          "indexed": true,
          "internalType": "uint256",
          "name": "redemptionTicketId",
          "type": "uint256"
        },
        {
          "indexed": false,
          "internalType": "uint256",
          "name": "ticketValueUBA",
          "type": "uint256"
        }
      ],
      "name": "RedemptionTicketCreated",
      "type": "event"
    },
    {
      "anonymous": false,
      "inputs": [
        {
          "indexed": true,
          "internalType": "address",
          "name": "agentVault",
          "type": "address"
        },
        {
          "indexed": true,
          "internalType": "uint256",
          "name": "redemptionTicketId",
          "type": "uint256"
        },
        {
          "indexed": false,
          "internalType": "uint256",
          "name": "ticketValueUBA",
          "type": "uint256"
        }
      ],
      "name": "RedemptionTicketUpdated",
      "type": "event"
    },
    {
      "anonymous": false,
      "inputs": [
        {
          "indexed": true,
          "internalType": "address",
          "name": "agentVault",
          "type": "address"
        },
        {
          "indexed": false,
          "internalType": "bool",
          "name": "mintFromFreeUnderlying",
          "type": "bool"
        },
        {
          "indexed": false,
          "internalType": "uint256",
          "name": "mintedAmountUBA",
          "type": "uint256"
        },
        {
          "indexed": false,
          "internalType": "uint256",
          "name": "depositedAmountUBA",
          "type": "uint256"
        },
        {
          "indexed": false,
          "internalType": "uint256",
          "name": "poolFeeUBA",
          "type": "uint256"
        }
      ],
      "name": "SelfMint",
      "type": "event"
    },
    {
      "anonymous": false,
      "inputs": [
        {
          "indexed": true,
          "internalType": "address",
          "name": "agentVault",
          "type": "address"
        },
        {
          "indexed": false,
          "internalType": "int256",
          "name": "underlyingBalanceUBA",
          "type": "int256"
        }
      ],
      "name": "UnderlyingBalanceChanged",
      "type": "event"
    },
    {
      "inputs": [
        {
          "components": [
            {
              "internalType": "bytes32[]",
              "name": "merkleProof",
              "type": "bytes32[]"
            },
            {
              "components": [
                {
                  "internalType": "bytes32",
                  "name": "attestationType",
                  "type": "bytes32"
                },
                {
                  "internalType": "bytes32",
                  "name": "sourceId",
                  "type": "bytes32"
                },
                {
                  "internalType": "uint64",
                  "name": "votingRound",
                  "type": "uint64"
                },
                {
                  "internalType": "uint64",
                  "name": "lowestUsedTimestamp",
                  "type": "uint64"
                },
                {
                  "components": [
                    {
                      "internalType": "bytes32",
                      "name": "transactionId",
                      "type": "bytes32"
                    },
                    {
                      "internalType": "uint256",
                      "name": "inUtxo",
                      "type": "uint256"
                    },
                    {
                      "internalType": "uint256",
                      "name": "utxo",
                      "type": "uint256"
                    }
                  ],
                  "internalType": "struct IPayment.RequestBody",
                  "name": "requestBody",
                  "type": "tuple"
                },
                {
                  "components": [
                    {
                      "internalType": "uint64",
                      "name": "blockNumber",
                      "type": "uint64"
                    },
                    {
                      "internalType": "uint64",
                      "name": "blockTimestamp",
                      "type": "uint64"
                    },
                    {
                      "internalType": "bytes32",
                      "name": "sourceAddressHash",
                      "type": "bytes32"
                    },
                    {
                      "internalType": "bytes32",
                      "name": "sourceAddressesRoot",
                      "type": "bytes32"
                    },
                    {
                      "internalType": "bytes32",
                      "name": "receivingAddressHash",
                      "type": "bytes32"
                    },
                    {
                      "internalType": "bytes32",
                      "name": "intendedReceivingAddressHash",
                      "type": "bytes32"
                    },
                    {
                      "internalType": "int256",
                      "name": "spentAmount",
                      "type": "int256"
                    },
                    {
                      "internalType": "int256",
                      "name": "intendedSpentAmount",
                      "type": "int256"
                    },
                    {
                      "internalType": "int256",
                      "name": "receivedAmount",
                      "type": "int256"
                    },
                    {
                      "internalType": "int256",
                      "name": "intendedReceivedAmount",
                      "type": "int256"
                    },
                    {
                      "internalType": "bytes32",
                      "name": "standardPaymentReference",
                      "type": "bytes32"
                    },
                    {
                      "internalType": "bool",
                      "name": "oneToOne",
                      "type": "bool"
                    },
                    {
                      "internalType": "uint8",
                      "name": "status",
                      "type": "uint8"
                    }
                  ],
                  "internalType": "struct IPayment.ResponseBody",
                  "name": "responseBody",
                  "type": "tuple"
                }
              ],
              "internalType": "struct IPayment.Response",
              "name": "data",
              "type": "tuple"
            }
          ],
          "internalType": "struct IPayment.Proof",
          "name": "_payment",
          "type": "tuple"
        },
        {
          "internalType": "uint256",
          "name": "_crtId",
          "type": "uint256"
        }
      ],
      "name": "executeMinting",
      "outputs": [],
      "stateMutability": "nonpayable",
      "type": "function"
    },
    {
      "inputs": [
        {
          "internalType": "address",
          "name": "_agentVault",
          "type": "address"
        },
        {
          "internalType": "uint64",
          "name": "_lots",
          "type": "uint64"
        }
      ],
      "name": "mintFromFreeUnderlying",
      "outputs": [],
      "stateMutability": "nonpayable",
      "type": "function"
    },
    {
      "inputs": [
        {
          "components": [
            {
              "internalType": "bytes32[]",
              "name": "merkleProof",
              "type": "bytes32[]"
            },
            {
              "components": [
                {
                  "internalType": "bytes32",
                  "name": "attestationType",
                  "type": "bytes32"
                },
                {
                  "internalType": "bytes32",
                  "name": "sourceId",
                  "type": "bytes32"
                },
                {
                  "internalType": "uint64",
                  "name": "votingRound",
                  "type": "uint64"
                },
                {
                  "internalType": "uint64",
                  "name": "lowestUsedTimestamp",
                  "type": "uint64"
                },
                {
                  "components": [
                    {
                      "internalType": "bytes32",
                      "name": "transactionId",
                      "type": "bytes32"
                    },
                    {
                      "internalType": "uint256",
                      "name": "inUtxo",
                      "type": "uint256"
                    },
                    {
                      "internalType": "uint256",
                      "name": "utxo",
                      "type": "uint256"
                    }
                  ],
                  "internalType": "struct IPayment.RequestBody",
                  "name": "requestBody",
                  "type": "tuple"
                },
                {
                  "components": [
                    {
                      "internalType": "uint64",
                      "name": "blockNumber",
                      "type": "uint64"
                    },
                    {
                      "internalType": "uint64",
                      "name": "blockTimestamp",
                      "type": "uint64"
                    },
                    {
                      "internalType": "bytes32",
                      "name": "sourceAddressHash",
                      "type": "bytes32"
                    },
                    {
                      "internalType": "bytes32",
                      "name": "sourceAddressesRoot",
                      "type": "bytes32"
                    },
                    {
                      "internalType": "bytes32",
                      "name": "receivingAddressHash",
                      "type": "bytes32"
                    },
                    {
                      "internalType": "bytes32",
                      "name": "intendedReceivingAddressHash",
                      "type": "bytes32"
                    },
                    {
                      "internalType": "int256",
                      "name": "spentAmount",
                      "type": "int256"
                    },
                    {
                      "internalType": "int256",
                      "name": "intendedSpentAmount",
                      "type": "int256"
                    },
                    {
                      "internalType": "int256",
                      "name": "receivedAmount",
                      "type": "int256"
                    },
                    {
                      "internalType": "int256",
                      "name": "intendedReceivedAmount",
                      "type": "int256"
                    },
                    {
                      "internalType": "bytes32",
                      "name": "standardPaymentReference",
                      "type": "bytes32"
                    },
                    {
                      "internalType": "bool",
                      "name": "oneToOne",
                      "type": "bool"
                    },
                    {
                      "internalType": "uint8",
                      "name": "status",
                      "type": "uint8"
                    }
                  ],
                  "internalType": "struct IPayment.ResponseBody",
                  "name": "responseBody",
                  "type": "tuple"
                }
              ],
              "internalType": "struct IPayment.Response",
              "name": "data",
              "type": "tuple"
            }
          ],
          "internalType": "struct IPayment.Proof",
          "name": "_payment",
          "type": "tuple"
        },
        {
          "internalType": "address",
          "name": "_agentVault",
          "type": "address"
        },
        {
          "internalType": "uint256",
          "name": "_lots",
          "type": "uint256"
        }
      ],
      "name": "selfMint",
      "outputs": [],
      "stateMutability": "nonpayable",
      "type": "function"
    }
  ],
  "bytecode": "0x6080604052348015600f57600080fd5b506137128061001f6000396000f3fe608060405234801561001057600080fd5b50600436106100415760003560e01c80630da5e8e0146100465780635a48b7631461005b57806369f020201461006e575b600080fd5b610059610054366004612f4f565b610081565b005b610059610069366004612fbf565b6102e7565b61005961007c366004612ff4565b6104b9565b610089610752565b600061009682600161079c565b60028101549091506000906100b3906001600160a01b0316610875565b90506100be84610909565b60038201546001600160a01b03163314806100e5575060048201546001600160a01b031633145b806100f557506100f5813361094a565b61011257604051637a5494e960e01b815260040160405180910390fd5b61011b8361098d565b6102408501351461013f576040516307dc70b360e51b815260040160405180910390fd5b6003810154610180850135146101685760405163c31f246360e01b815260040160405180910390fd5b815460009061017f906001600160401b03166109b7565b60018401549091506101a39061019e906001600160801b031683613063565b6109ff565b61020086013512156101c85760405163068f2e3d60e01b815260040160405180910390fd5b8254600160401b90046001600160401b03166101ec61012087016101008801613076565b6001600160401b0316101561021457604051632de55f0d60e01b815260040160405180910390fd5b61023e7fec7e8c1c441439dd40959777f4c577ea0cd42fcc1dbe59d2bd0f5d9c55df8dc186610a72565b6003830154835461027a91849160009188916001600160a01b03909116906001600160401b03166102008b0135610275868b610a80565b610add565b61028385610da8565b61028e836001610dd6565b61029783610f0c565b60018301546102b7908390600160801b90046001600160801b0316610fdf565b5050506102e360017f0cd2207518cd3e5213e2c6dbe63d55b60aa893c194a427b7d7f1600408fd5bde55565b5050565b6102ef61108e565b6102f76110d9565b60008051602061369d833981519152600061031184610875565b905061031c8161113c565b61032581611163565b60006103308261117a565b60108401549091506001600160401b03161561035f576040516375ab03ab60e11b815260040160405180910390fd5b6000846001600160401b031611610389576040516359ed140d60e01b815260040160405180910390fd5b6001600483015460ff1660058111156103a4576103a4613091565b146103c2576040516347fa468760e11b815260040160405180910390fd5b6001600160401b0384166103d68284611224565b10156103f55760405163d78c667760e01b815260040160405180910390fd5b6000610409856001600160401b0316611232565b90506000610416826109b7565b905060006104248583611283565b9050610441610432826112c9565b61043c90856130a7565b61130a565b6000818361044e8861144f565b6104589190613063565b6104629190613063565b6006870154909150600160401b9004600f0b61047d826109ff565b131561049c576040516317e3a9d160e31b815260040160405180910390fd5b6104ae86600260003388600088610add565b505050505050505050565b6104c161108e565b6104c96110d9565b60008051602061369d83398151915260006104e384610875565b90506104ee8161113c565b6104f781611163565b60006105028261117a565b905061050d86610909565b60108301546001600160401b031615610539576040516375ab03ab60e11b815260040160405180910390fd5b6001600483015460ff16600581111561055457610554613091565b14610572576040516347fa468760e11b815260040160405180910390fd5b8361057d8284611224565b101561059c5760405163d78c667760e01b815260040160405180910390fd5b60006105a785611232565b905060006105b4826109b7565b905060006105c28583611283565b90506105d0610432826112c9565b67232128293320800960c11b6001600160a01b038916176102408a01351461060b57604051630f1c2ef760e01b815260040160405180910390fd5b60038501546101808a013514610633576040516202cb0b60e91b815260040160405180910390fd5b61064061019e8284613063565b6102008a0135121561066557604051639f5b804560e01b815260040160405180910390fd5b600a8501546001600160401b03166106856101208b016101008c01613076565b6001600160401b0316116106ac5760405163b32bbe4f60e01b815260040160405180910390fd5b6106b9600b87018a610a72565b6106c289610da8565b61020089013587156106e4576106df866001600033888688610add565b610746565b6106ee86826114b9565b6040805160008082526020820181905291810183905260608101919091526001600160a01b038a16907f2b8def7928f95ea587bcff888708376aefe2c32d3671c2846769a692ba59055d906080015b60405180910390a25b50505050505050505050565b7f0cd2207518cd3e5213e2c6dbe63d55b60aa893c194a427b7d7f1600408fd5bde80546001190161079657604051633ee5aeb560e01b815260040160405180910390fd5b60029055565b60008083116107be57604051631905b1b960e21b815260040160405180910390fd5b5060008281527fec7e8c1c441439dd40959777f4c577ea0cd42fcc1dbe59d2bd0f5d9c55df8dbc602052604081208054909160008051602061369d833981519152916001600160401b0316900361082857604051631905b1b960e21b815260040160405180910390fd5b821561086e576000600383810154600160a01b900460ff169081111561085057610850613091565b1461086e57604051631905b1b960e21b815260040160405180910390fd5b5092915050565b604081901b68010000000000000000600160e01b03167f5bebac0595fee029d42bb673937f5f1cb81cf8641382bc17774635de9b7d79651860048101546000919060ff16828160058111156108cc576108cc613091565b141580156108ec575060058160058111156108e9576108e9613091565b14155b61086e5760405163d68a46c560e01b815260040160405180910390fd5b600061091d6102a0830161028084016130d7565b60ff161461093e576040516307a4ced160e51b815260040160405180910390fd5b6109478161156b565b50565b60018201546000906001600160a01b0383811691161480610984575061096f83611676565b6001600160a01b0316826001600160a01b0316145b90505b92915050565b60006001600160401b038211156109a6576109a66130f2565b5067464250526641000160c01b1790565b6000805160206136bd8339815191525460009060008051602061367d833981519152906109f890600160901b90046001600160401b03908116908516613108565b9392505050565b60006001600160ff1b03821115610a6e5760405162461bcd60e51b815260206004820152602860248201527f53616665436173743a2076616c756520646f65736e27742066697420696e2061604482015267371034b73a191a9b60c11b60648201526084015b60405180910390fd5b5090565b6102e38260a0830135611718565b6002810154600090600160a01b900461ffff168181610aae576004850154600160581b900461ffff16610ab9565b610ab960018361311f565b6001850154909150610ad4906001600160801b031682611758565b95945050505050565b6000610ae8826112c9565b9050610afd88610af883876130a7565b611770565b610b0788846114b9565b6000610b12856109b7565b9050610b457f4f24f5c433db0962dac0d2c8b84197a6e6c7cc4e5d9ebe1916a1b6193da2f33b546001600160a01b031690565b6040516340c10f1960e01b81526001600160a01b0388811660048301526024820184905291909116906340c10f1990604401600060405180830381600087803b158015610b9157600080fd5b505af1158015610ba5573d6000803e3d6000fd5b50505050610bda7f4f24f5c433db0962dac0d2c8b84197a6e6c7cc4e5d9ebe1916a1b6193da2f33b546001600160a01b031690565b89546040516340c10f1960e01b81526001600160a01b039182166004820152602481018690529116906340c10f1990604401600060405180830381600087803b158015610c2657600080fd5b505af1158015610c3a573d6000803e3d6000fd5b50508a5460405163542a535160e11b8152600481018790526001600160a01b03909116925063a854a6a29150602401600060405180830381600087803b158015610c8357600080fd5b505af1158015610c97573d6000803e3d6000fd5b5060009250610ca4915050565b886002811115610cb657610cb6613091565b03610d3257600083610cc88387613139565b610cd29190613139565b905087610cde8b611841565b60408051858152602081018590529081018790526001600160a01b0391909116907f0d418f2ae12260f9d0ceacf72b08fcc4b05560719443f40d3761ee90da0d8fa59060600160405180910390a3506104ae565b60006002896002811115610d4857610d48613091565b149050610d548a611841565b60408051831515815260208101859052908101879052606081018690526001600160a01b0391909116907f2b8def7928f95ea587bcff888708376aefe2c32d3671c2846769a692ba59055d9060800161073d565b610947610dbd61012083016101008401613076565b610dcf61014084016101208501613076565b6001611869565b600282015460008051602061369d83398151915290600090610e00906001600160a01b0316610875565b90506000610e16610e118387610a80565b6112c9565b8554610e2b91906001600160401b03166130a7565b6005830154909150610e479082906001600160401b031661314c565b60058301805467ffffffffffffffff19166001600160401b03928316179055600e840180548392601891610e84918591600160c01b90041661314c565b92506101000a8154816001600160401b0302191690836001600160401b0316021790555060006003811115610ebb57610ebb613091565b846003811115610ecd57610ecd613091565b03610eda57610eda6130f2565b838560030160146101000a81548160ff02191690836003811115610f0057610f00613091565b02179055505050505050565b6004810154600090610f3390633b9aca0090600160a01b90046001600160401b0316613108565b905080156102e35760048201805467ffffffffffffffff60a01b1981169091556001600160a01b03163303610f81576102e3610f6d6119f7565b60048401546001600160a01b031683611a64565b7f4f24f5c433db0962dac0d2c8b84197a6e6c7cc4e5d9ebe1916a1b6193da2f343546040516001600160a01b039091169082156108fc029083906000818181858888f19350505050158015610fda573d6000803e3d6000fd5b505050565b80600003610feb575050565b6004820154600090611009908390600160581b900461ffff16611acc565b8354604080516368dc448760e11b815290519293506001600160a01b039091169163d1b8890e918491600480830192600092919082900301818588803b15801561105257600080fd5b505af1158015611066573d6000803e3d6000fd5b5050505050610fda6110766119f7565b61107f85611adb565b6110898486613139565b611a64565b7fec7e8c1c441439dd40959777f4c577ea0cd42fcc1dbe59d2bd0f5d9c55df8dc754600160881b900460ff166110d757604051630d6e7efb60e41b815260040160405180910390fd5b565b7fec7e8c1c441439dd40959777f4c577ea0cd42fcc1dbe59d2bd0f5d9c55df8dc65460008051602061369d8339815191529042600160401b9091046001600160401b031611156109475760405163909b191760e01b815260040160405180910390fd5b611146813361094a565b6109475760405163f6e2f99b60e01b815260040160405180910390fd5b6001810154610947906001600160a01b0316611b0a565b6111e56040805160c081019091526000606082018181526080830182905260a083019190915281908152604080516060810182526000808252602082810182905292820152910190815260408051606081018252600080825260208281018290529282015291015290565b60006111f083611bbe565b9050604051806060016040528061120685611c7b565b815260200182815260200161121b8584611d20565b90529392505050565b600061098483836001611eef565b7f4f24f5c433db0962dac0d2c8b84197a6e6c7cc4e5d9ebe1916a1b6193da2f3475460009060008051602061367d833981519152906109f89061127e906001600160401b031685613108565b611f47565b600482015460009081906112a3908490600160481b900461ffff16611acc565b90506112c18185600401600b9054906101000a900461ffff16611758565b949350505050565b6000805160206136bd8339815191525460009060008051602061367d833981519152906109f89061127e90600160901b90046001600160401b031685613181565b7f4f24f5c433db0962dac0d2c8b84197a6e6c7cc4e5d9ebe1916a1b6193da2f3475460008051602061369d8339815191529060008051602061367d83398151915290600160581b90046001600160401b0316600081900361136b5750505050565b6001820154604080516318160ddd60e01b815290516000926001600160a01b0316916318160ddd9160048083019260209291908290030181865afa1580156113b7573d6000803e3d6000fd5b505050506040513d601f19601f820116820180604052508101906113db9190613195565b905060006113e8826112c9565b600e8601546114079190600160c01b90046001600160401b03166130a7565b6001600160401b0316905082866001600160401b0316826114289190613063565b11156114475760405163c4d282e360e01b815260040160405180910390fd5b505050505050565b6000805160206136bd83398151915254600582015460009160008051602061367d83398151915291600160901b9091046001600160401b03908116916114a691600160801b8204811691600160401b9004166130a7565b6001600160401b03166109f89190613108565b6114ca6114c5826109ff565b611faf565b6006830180546008906114e8908490600160401b9004600f0b6131ae565b92506101000a8154816001600160801b030219169083600f0b6001600160801b0316021790555061151882611841565b6006830154604051600160401b909104600f0b81526001600160a01b0391909116907f73da6891cb86668451f612d2555e88650888a0133a30b1d226b2d1f955e62bca9060200160405180910390a25050565b7f4f24f5c433db0962dac0d2c8b84197a6e6c7cc4e5d9ebe1916a1b6193da2f342547f4f24f5c433db0962dac0d2c8b84197a6e6c7cc4e5d9ebe1916a1b6193da2f3455460008051602061367d833981519152916001600160a01b0316906040840135146115ec5760405163057f3fa760e51b815260040160405180910390fd5b60405163a7a3797560e01b81526001600160a01b0382169063a7a3797590611618908690600401613337565b602060405180830381865afa158015611635573d6000803e3d6000fd5b505050506040513d601f19601f8201168201806040525081019061165991906133cc565b610fda576040516316c32dbb60e21b815260040160405180910390fd5b60006116a97f4f24f5c433db0962dac0d2c8b84197a6e6c7cc4e5d9ebe1916a1b6193da2f341546001600160a01b031690565b6001830154604051631f86345d60e31b81526001600160a01b03918216600482015291169063fc31a2e890602401602060405180830381865afa1580156116f4573d6000803e3d6000fd5b505050506040513d601f19601f8201168201806040525081019061098791906133e9565b60008181526020839052604090205415611745576040516318dce79f60e01b815260040160405180910390fd5b6000818152602092909252604090912055565b600061098461176b8461ffff8516611acc565b612018565b808260050160088282829054906101000a90046001600160401b031661179691906130a7565b92506101000a8154816001600160401b0302191690836001600160401b0316021790555060006117d160008051602061367d83398151915290565b60068401549091506000906117f09084906001600160401b03166130a7565b600d83015490915060009061180e906001600160401b031683613406565b9050600061181c828461314c565b90506001600160401b0381161561183757611837868261205f565b6114478683612202565b7f5bebac0595fee029d42bb673937f5f1cb81cf8641382bc17774635de9b7d79651860401c90565b60008051602061369d83398151915260008061188584876130a7565b600f8401549091506001600160401b0362010000909104811690821611156118d157600f8301805469ffffffffffffffff00001916620100006001600160401b03841602179055600191505b60006103e860008051602061367d833981519152600c01546118f99063ffffffff1687613434565b6119039190613456565b61190d90876130a7565b600f8501546001600160401b039182169250600160501b9004168111156119645761193781611f47565b84600f01600a6101000a8154816001600160401b0302191690836001600160401b03160217905550600192505b82156119ee5761197342611f47565b600f8501805467ffffffffffffffff60901b1916600160901b6001600160401b039384160217908190556040805162010000830484168152600160501b9092049092166020820152428183015290517f2078549e3faec355556787458d744ad19765bbb953b3f71801333f29abdce1c8916060908290030190a15b50505050505050565b7fec7e8c1c441439dd40959777f4c577ea0cd42fcc1dbe59d2bd0f5d9c55df8dc55460008051602061369d8339815191528054600092829161ffff909116908110611a4457611a44613484565b60009182526020909120600490910201546001600160a01b031692915050565b8015610fda5760405163b760faf960e01b81526001600160a01b03838116600483015284169063b760faf99083906024016000604051808303818588803b158015611aae57600080fd5b505af1158015611ac2573d6000803e3d6000fd5b5050505050505050565b60006109848383612710612298565b600080611ae783611676565b90506001600160a01b0381166109875760018301546001600160a01b03166109f8565b7f4f24f5c433db0962dac0d2c8b84197a6e6c7cc4e5d9ebe1916a1b6193da2f341546001600160a01b0316604051633af32abf60e01b81526001600160a01b0383811660048301529190911690633af32abf90602401602060405180830381865afa158015611b7d573d6000803e3d6000fd5b505050506040513d601f19601f82011682018060405250810190611ba191906133cc565b61094757604051631408f3ef60e31b815260040160405180910390fd5b611be36040805160608101909152806000815260200160008152602001600081525090565b6000611bee8361239c565b604080516060810182526001815285548251634ac8eb5f60e01b8152925193945090926020808501936001600160a01b0390931692634ac8eb5f92600480830193928290030181865afa158015611c49573d6000803e3d6000fd5b505050506040513d601f19601f82011682018060405250810190611c6d9190613195565b815260200161121b836123eb565b611ca06040805160608101909152806000815260200160008152602001600081525090565b6000611cab83612401565b60408051606081019091526000815281549192509060208201906001600160a01b03166370a08231611cdc87611841565b6040516001600160e01b031960e084901b1681526001600160a01b039091166004820152602401602060405180830381865afa158015611c49573d6000803e3d6000fd5b611d456040805160608101909152806000815260200160008152602001600081525090565b8254604080516332f7ce0b60e21b815290516000926001600160a01b03169163cbdf382c9160048083019260209291908290030181865afa158015611d8e573d6000803e3d6000fd5b505050506040513d601f19601f82011682018060405250810190611db291906133e9565b90506000816001600160a01b03166370a08231611dce87611841565b6040516001600160e01b031960e084901b1681526001600160a01b039091166004820152602401602060405180830381865afa158015611e12573d6000803e3d6000fd5b505050506040513d601f19601f82011682018060405250810190611e369190613195565b90506000826001600160a01b03166318160ddd6040518163ffffffff1660e01b8152600401602060405180830381865afa158015611e78573d6000803e3d6000fd5b505050506040513d601f19601f82011682018060405250810190611e9c9190613195565b905060008560200151600003611eb6578560400151611ecb565b60208601516040870151611ecb918490612298565b60408051606081018252600281526020810195909552840152509095945050505050565b600080611f0185600001518585612438565b90506000611f1486602001518686612438565b90506000611f2787604001518787612438565b9050611f3c83611f378484612479565b612479565b979650505050505050565b60006001600160401b03821115610a6e5760405162461bcd60e51b815260206004820152602660248201527f53616665436173743a2076616c756520646f65736e27742066697420696e203660448201526534206269747360d01b6064820152608401610a65565b80600f81900b81146120135760405162461bcd60e51b815260206004820152602760248201527f53616665436173743a2076616c756520646f65736e27742066697420696e20316044820152663238206269747360c81b6064820152608401610a65565b919050565b6000805160206136bd8339815191525460009060008051602061367d8339815191529061205590600160901b90046001600160401b03168461349a565b6109f89084613139565b60008051602061369d8339815191526001600160401b03821660000361208457505050565b600061208f84611841565b6009830154600160401b90046001600160401b031660008181526007850160205260409020805492935090916001600160a01b0380851691160361218c578054859082906014906120f1908490600160a01b90046001600160401b03166130a7565b92506101000a8154816001600160401b0302191690836001600160401b0316021790555060006121378260000160149054906101000a90046001600160401b03166109b7565b9050826001600160401b0316846001600160a01b03167f9d2e72c50be7927e999d37329649af37a863df77bcb25361699ce021d3d7475d8360405161217e91815260200190565b60405180910390a350611447565b600061219c60078601858861248f565b905060006121a9876109b7565b9050816001600160401b0316856001600160a01b03167f631f8f2039090539b2ea4ef7dc567f7f1939ef4dd3e790b1ca7bc548a1fada58836040516121f091815260200190565b60405180910390a35050505050505050565b60068201546001600160401b0380831691160361221d575050565b60068201805467ffffffffffffffff19166001600160401b0383161790556000612246826109b7565b905061225183611841565b6001600160a01b03167fa3db2bc927901a1d3ba09ad51d84609457b98443be9132a0a936a47c5a1081b58260405161228b91815260200190565b60405180910390a2505050565b60008082116122ba576040516323d359a360e01b815260040160405180910390fd5b836000036122ca575060006109f8565b838302838582816122dd576122dd61316b565b04036122fb578281816122f2576122f261316b565b049150506109f8565b5060006123088386613181565b90506000612316848761349a565b905060006123248587613181565b90506000612332868861349a565b90508561233f8285613108565b6123499190613181565b6123538385613108565b61235d8387613108565b886123688689613108565b6123729190613108565b61237c9190613063565b6123869190613063565b6123909190613063565b98975050505050505050565b60008060008051602061369d833981519152600484015481549192508291630100000090910461ffff169081106123d5576123d5613484565b9060005260206000209060040201915050919050565b60006123f8826000612898565b50909392505050565b60008060008051602061369d83398151915260048401548154919250829161010090910461ffff169081106123d5576123d5613484565b6000806124458585612a57565b90506000612454868686612a74565b90508060000361246557600061246f565b61246f8183613181565b9695505050505050565b60008183106124885781610984565b5090919050565b6001600160a01b038216600090815260018401602052604081206002850180548391906010906124ce90600160801b90046001600160401b03166134ae565b91906101000a8154816001600160401b0302191690836001600160401b03160217905590506040518060c00160405280866001600160a01b03168152602001856001600160401b031681526020018760020160089054906101000a90046001600160401b03166001600160401b0316815260200160006001600160401b031681526020018360000160089054906101000a90046001600160401b03166001600160401b0316815260200160006001600160401b0316815250866000016000836001600160401b03166001600160401b0316815260200190815260200160002060008201518160000160006101000a8154816001600160a01b0302191690836001600160a01b0316021790555060208201518160000160146101000a8154816001600160401b0302191690836001600160401b0316021790555060408201518160010160006101000a8154816001600160401b0302191690836001600160401b0316021790555060608201518160010160086101000a8154816001600160401b0302191690836001600160401b0316021790555060808201518160010160106101000a8154816001600160401b0302191690836001600160401b0316021790555060a08201518160010160186101000a8154816001600160401b0302191690836001600160401b031602179055509050508560020160009054906101000a90046001600160401b03166001600160401b031660000361272b576002860154600160401b90046001600160401b031615612708576127086130f2565b60028601805467ffffffffffffffff19166001600160401b038316179055612793565b6002860154600160401b90046001600160401b031660000361274f5761274f6130f2565b6002860154600160401b908190046001600160401b039081166000908152602089905260409020600101805467ffffffffffffffff60401b19169184169092021790555b6002860180546001600160401b03808416600160401b0267ffffffffffffffff60401b1990921691909117909155825416600003612809578154600160401b90046001600160401b0316156127ea576127ea6130f2565b815467ffffffffffffffff19166001600160401b03821617825561286c565b8154600160401b90046001600160401b031660000361282a5761282a6130f2565b81546001600160401b03600160401b909104811660009081526020889052604090206001018054918316600160c01b026001600160c01b039092169190911790555b815467ffffffffffffffff60401b1916600160401b6001600160401b0383160217909155949350505050565b6000806000806000806129378860010180546128b3906134d9565b80601f01602080910402602001604051908101604052809291908181526020018280546128df906134d9565b801561292c5780601f106129015761010080835404028352916020019161292c565b820191906000526020600020905b81548152906001019060200180831161290f57829003601f168201915b505050505088612ac0565b8a549295509093509150600160f01b900460ff161561297e57875460009061296d90600160a81b900460ff166001838786612bae565b9650919450849350612a5092505050565b6000806000612a198b6002018054612995906134d9565b80601f01602080910402602001604051908101604052809291908181526020018280546129c1906134d9565b8015612a0e5780601f106129e357610100808354040283529160200191612a0e565b820191906000526020600020905b8154815290600101906020018083116129f157829003601f168201915b50505050508b612ac0565b8d549295509093509150600090612a3d90600160a81b900460ff1685848a89612bae565b9950949750909550612a50945050505050565b9250925092565b600080612a648484612c35565b90506112c1846020015182612d65565b7f4f24f5c433db0962dac0d2c8b84197a6e6c7cc4e5d9ebe1916a1b6193da2f3475460009060008051602061367d83398151915290610ad490869086906001600160401b031686612d7f565b7f4f24f5c433db0962dac0d2c8b84197a6e6c7cc4e5d9ebe1916a1b6193da2f344546000908190819060008051602061367d833981519152906001600160a01b03168515612b825760405163e4a0a55b60e01b81526001600160a01b0382169063e4a0a55b90612b34908a9060040161350d565b606060405180830381865afa158015612b51573d6000803e3d6000fd5b505050506040513d601f19601f82011682018060405250810190612b75919061355b565b9450945094505050612a50565b60405163524f388960e01b81526001600160a01b0382169063524f388990612b34908a9060040161350d565b600060008051602061367d833981519152816009612bcc878a613063565b612bd69190613063565b600a830154909150600090612bf6908690600160a81b900460ff16613063565b905080821015612c0857612c086130f2565b612c28612c158284613139565b612c2090600a613670565b87908a612298565b9998505050505050505050565b6000806000612c48848660000151612df6565b60058601549193509150600090612c71906001600160401b03600160401b820481169116613063565b90506000612c8d84612c87848a60400151612ec0565b90611acc565b90506000600188516002811115612ca657612ca6613091565b14612cc5576005870154600160801b90046001600160401b0316612cdb565b6005870154600160c01b90046001600160401b03165b90506000612cfa85612c87846001600160401b03168c60400151612ec0565b9050600060018a516002811115612d1357612d13613091565b03612d1f576000612d37565b8951612d2c908a90612eda565b546001600160801b03165b6001600160801b0316905080612d4d8386613063565b612d579190613063565b9a9950505050505050505050565b6000818311612d75576000610984565b6109848284613139565b60008082612d8e576000612db7565b6004850154612db79061ffff600160581b8204811691612c87918891600160481b900416611acc565b90506000612dc58286613063565b90506000612dd7828960400151612ec0565b90506000612de9888a60000151612df6565b509050612c288282611acc565b6000806002836002811115612e0d57612e0d613091565b03612e385750506000805160206136bd83398151915254640100000000900463ffffffff1680612eb9565b6001836002811115612e4c57612e4c613091565b03612e8757612e5a8461239c565b60030154600485015463ffffffff9182169250612e8091600160881b9091041682612f27565b9150612eb9565b612e9084612401565b60030154600485015463ffffffff9182169250612eb691600160681b9091041682612f27565b91505b9250929050565b600061098482612ed26009600a613670565b859190612298565b60006001826002811115612ef057612ef0613091565b03612efd57612efd6130f2565b6000826002811115612f1157612f11613091565b14612f1f5782600901610984565b505060080190565b60008183116124885781610984565b60006102a08284031215612f4957600080fd5b50919050565b60008060408385031215612f6257600080fd5b82356001600160401b03811115612f7857600080fd5b612f8485828601612f36565b95602094909401359450505050565b6001600160a01b038116811461094757600080fd5b80356001600160401b038116811461201357600080fd5b60008060408385031215612fd257600080fd5b8235612fdd81612f93565b9150612feb60208401612fa8565b90509250929050565b60008060006060848603121561300957600080fd5b83356001600160401b0381111561301f57600080fd5b61302b86828701612f36565b935050602084013561303c81612f93565b929592945050506040919091013590565b634e487b7160e01b600052601160045260246000fd5b808201808211156109875761098761304d565b60006020828403121561308857600080fd5b61098482612fa8565b634e487b7160e01b600052602160045260246000fd5b6001600160401b0381811683821601908111156109875761098761304d565b803560ff8116811461201357600080fd5b6000602082840312156130e957600080fd5b610984826130c6565b634e487b7160e01b600052600160045260246000fd5b80820281158282048414176109875761098761304d565b61ffff82811682821603908111156109875761098761304d565b818103818111156109875761098761304d565b6001600160401b0382811682821603908111156109875761098761304d565b634e487b7160e01b600052601260045260246000fd5b6000826131905761319061316b565b500490565b6000602082840312156131a757600080fd5b5051919050565b600f81810b9083900b016f7fffffffffffffffffffffffffffffff81136f7fffffffffffffffffffffffffffffff19821217156109875761098761304d565b801515811461094757600080fd5b8035612013816131ed565b80358252602080820135908301526001600160401b0361322860408301612fa8565b1660408301526001600160401b0361324260608301612fa8565b1660608301526080818101359083015260a0808201359083015260c0808201359083015261328760e08084019061327a908401612fa8565b6001600160401b03169052565b6132946101008201612fa8565b6001600160401b031661010083015261012081810135908301526101408082013590830152610160808201359083015261018080820135908301526101a080820135908301526101c080820135908301526101e080820135908301526102008082013590830152610220808201359083015261331361024082016131fb565b151561024083015261332861026082016130c6565b60ff8116610260840152505050565b6020815260008235601e1984360301811261335157600080fd5b83016020810190356001600160401b0381111561336d57600080fd5b8060051b80360383131561338057600080fd5b6102a060208601526102c085018290526001600160fb1b038211156133a457600080fd5b80836102e08701376133bc6040860160208801613206565b939093016102e001949350505050565b6000602082840312156133de57600080fd5b81516109f8816131ed565b6000602082840312156133fb57600080fd5b81516109f881612f93565b60006001600160401b0383168061341f5761341f61316b565b806001600160401b0384160691505092915050565b6001600160401b03818116838216029081169081811461086e5761086e61304d565b60006001600160401b0383168061346f5761346f61316b565b806001600160401b0384160491505092915050565b634e487b7160e01b600052603260045260246000fd5b6000826134a9576134a961316b565b500690565b60006001600160401b0382166001600160401b0381036134d0576134d061304d565b60010192915050565b600181811c908216806134ed57607f821691505b602082108103612f4957634e487b7160e01b600052602260045260246000fd5b602081526000825180602084015260005b8181101561353b576020818601810151604086840101520161351e565b506000604082850101526040601f19601f83011684010191505092915050565b60008060006060848603121561357057600080fd5b5050815160208301516040909301519094929350919050565b6001815b60018411156135c4578085048111156135a8576135a861304d565b60018416156135b657908102905b60019390931c92800261358d565b935093915050565b6000826135db57506001610987565b816135e857506000610987565b81600181146135fe576002811461360857613624565b6001915050610987565b60ff8411156136195761361961304d565b50506001821b610987565b5060208310610133831016604e8410600b8410161715613647575081810a610987565b6136546000198484613589565b80600019048211156136685761366861304d565b029392505050565b600061098483836135cc56fe4f24f5c433db0962dac0d2c8b84197a6e6c7cc4e5d9ebe1916a1b6193da2f33aec7e8c1c441439dd40959777f4c577ea0cd42fcc1dbe59d2bd0f5d9c55df8db64f24f5c433db0962dac0d2c8b84197a6e6c7cc4e5d9ebe1916a1b6193da2f346a26469706673582212200206877b0364d5e48170ae01e4d83e2e4a0bad9dd2fd76160505e95b4c56b18964736f6c634300081b0033",
  "linkReferences": {},
  "deployedLinkReferences": {}
}