{
  "_format": "hh-sol-artifact-1",
  "contractName": "FlareContractRegistry",
  "sourceName": "contracts/utils/implementation/FlareContractRegistry.sol",
  "abi": [
    {
      "inputs": [
        {
          "internalType": "address",
          "name": "_addressUpdater",
          "type": "address"
        }
      ],
      "stateMutability": "nonpayable",
      "type": "constructor"
    },
    {
      "inputs": [],
      "name": "getAddressUpdater",
      "outputs": [
        {
          "internalType": "address",
          "name": "_addressUpdater",
          "type": "address"
        }
      ],
      "stateMutability": "view",
      "type": "function"
    },
    {
      "inputs": [],
      "name": "getAllContracts",
      "outputs": [
        {
          "internalType": "string[]",
          "name": "",
          "type": "string[]"
        },
        {
          "internalType": "address[]",
          "name": "",
          "type": "address[]"
        }
      ],
      "stateMutability": "view",
      "type": "function"
    },
    {
      "inputs": [
        {
          "internalType": "bytes32",
          "name": "_nameHash",
          "type": "bytes32"
        }
      ],
      "name": "getContractAddressByHash",
      "outputs": [
        {
          "internalType": "address",
          "name": "",
          "type": "address"
        }
      ],
      "stateMutability": "view",
      "type": "function"
    },
    {
      "inputs": [
        {
          "internalType": "string",
          "name": "_name",
          "type": "string"
        }
      ],
      "name": "getContractAddressByName",
      "outputs": [
        {
          "internalType": "address",
          "name": "",
          "type": "address"
        }
      ],
      "stateMutability": "view",
      "type": "function"
    },
    {
      "inputs": [
        {
          "internalType": "bytes32[]",
          "name": "_nameHashes",
          "type": "bytes32[]"
        }
      ],
      "name": "getContractAddressesByHash",
      "outputs": [
        {
          "internalType": "address[]",
          "name": "",
          "type": "address[]"
        }
      ],
      "stateMutability": "view",
      "type": "function"
    },
    {
      "inputs": [
        {
          "internalType": "string[]",
          "name": "_names",
          "type": "string[]"
        }
      ],
      "name": "getContractAddressesByName",
      "outputs": [
        {
          "internalType": "address[]",
          "name": "",
          "type": "address[]"
        }
      ],
      "stateMutability": "view",
      "type": "function"
    },
    {
      "inputs": [
        {
          "internalType": "bytes32[]",
          "name": "_contractNameHashes",
          "type": "bytes32[]"
        },
        {
          "internalType": "address[]",
          "name": "_contractAddresses",
          "type": "address[]"
        }
      ],
      "name": "updateContractAddresses",
      "outputs": [],
      "stateMutability": "nonpayable",
      "type": "function"
    }
  ],
  "bytecode": "0x608060405234801561001057600080fd5b50604051610d1e380380610d1e83398101604081905261002f91610064565b8061003981610040565b5050610092565b7f714f205b2abd25bef1d06a1af944e38c113fe6160375c4e1d6d5cf28848e771955565b600060208284031215610075578081fd5b81516001600160a01b038116811461008b578182fd5b9392505050565b610c7d806100a16000396000f3fe608060405234801561001057600080fd5b506004361061007d5760003560e01c80635e11e2d11161005b5780635e11e2d1146100c957806376d2b1af146100e957806382760fca146100fc578063b00c0b761461010f5761007d565b8063159354a21461008257806318d3ce96146100ab5780635267a15d146100c1575b600080fd5b61009561009036600461092b565b610124565b6040516100a29190610a1d565b60405180910390f35b6100b36101af565b6040516100a2929190610b14565b610095610236565b6100dc6100d736600461071b565b61025b565b6040516100a29190610a31565b6100dc6100f7366004610812565b6102ed565b61009561010a366004610943565b610324565b61012261011d36600461075b565b6103ab565b005b600061012e610236565b6001600160a01b031663159354a2836040518263ffffffff1660e01b81526004016101599190610ba0565b60206040518083038186803b15801561017157600080fd5b505afa158015610185573d6000803e3d6000fd5b505050506040513d601f19601f820116820180604052508101906101a991906106c4565b92915050565b6060806101ba610236565b6001600160a01b0316632f26c5c36040518163ffffffff1660e01b815260040160006040518083038186803b1580156101f257600080fd5b505afa158015610206573d6000803e3d6000fd5b505050506040513d6000823e601f3d908101601f1916820160405261022e919081019061083a565b915091509091565b7f714f205b2abd25bef1d06a1af944e38c113fe6160375c4e1d6d5cf28848e77195490565b6060610265610236565b6001600160a01b0316635e11e2d184846040518363ffffffff1660e01b8152600401610292929190610a44565b60006040518083038186803b1580156102aa57600080fd5b505afa1580156102be573d6000803e3d6000fd5b505050506040513d6000823e601f3d908101601f191682016040526102e691908101906106e0565b9392505050565b60606102f7610236565b6001600160a01b031663ee6f63c384846040518363ffffffff1660e01b8152600401610292929190610a7e565b600061032e610236565b6001600160a01b03166304433bbc84846040518363ffffffff1660e01b815260040161035b929190610ba9565b60206040518083038186803b15801561037357600080fd5b505afa158015610387573d6000803e3d6000fd5b505050506040513d601f19601f820116820180604052508101906102e691906106c4565b6103b3610236565b6001600160a01b0316336001600160a01b03161461040f576040805162461bcd60e51b815260206004820152601460248201527337b7363c9030b2323932b9b9903ab83230ba32b960611b604482015290519081900360640190fd5b61044861044383836040518060400160405280600e81526020016d20b2323932b9b9aab83230ba32b960911b815250610452565b61057f565b61044e82825b5050565b600080826040516020018080602001828103825283818151815260200191508051906020019080838360005b8381101561049657818101518382015260200161047e565b50505050905090810190601f1680156104c35780820380516001836020036101000a031916815260200191505b50925050506040516020818303038152906040528051906020012090506000805b865181101561052b578681815181106104f957fe5b60200260200101518314156105235785818151811061051457fe5b6020026020010151915061052b565b6001016104e4565b506001600160a01b038116610576576040805162461bcd60e51b815260206004820152600c60248201526b61646472657373207a65726f60a01b604482015290519081900360640190fd5b95945050505050565b7f714f205b2abd25bef1d06a1af944e38c113fe6160375c4e1d6d5cf28848e771955565b600082601f8301126105b3578081fd5b813560206105c86105c383610be1565b610bbd565b82815281810190858301838502870184018810156105e4578586fd5b855b8581101561060b5781356105f981610c2f565b845292840192908401906001016105e6565b5090979650505050505050565b600082601f830112610628578081fd5b815160206106386105c383610be1565b8281528181019085830183850287018401881015610654578586fd5b855b8581101561060b57815161066981610c2f565b84529284019290840190600101610656565b60008083601f84011261068c578182fd5b50813567ffffffffffffffff8111156106a3578182fd5b60208301915083602080830285010111156106bd57600080fd5b9250929050565b6000602082840312156106d5578081fd5b81516102e681610c2f565b6000602082840312156106f1578081fd5b815167ffffffffffffffff811115610707578182fd5b61071384828501610618565b949350505050565b6000806020838503121561072d578081fd5b823567ffffffffffffffff811115610743578182fd5b61074f8582860161067b565b90969095509350505050565b6000806040838503121561076d578182fd5b823567ffffffffffffffff80821115610784578384fd5b818501915085601f830112610797578384fd5b813560206107a76105c383610be1565b82815281810190858301838502870184018b10156107c3578889fd5b8896505b848710156107e55780358352600196909601959183019183016107c7565b50965050860135925050808211156107fb578283fd5b50610808858286016105a3565b9150509250929050565b60008060208385031215610824578182fd5b823567ffffffffffffffff811115610743578283fd5b600080604080848603121561084d578283fd5b835167ffffffffffffffff80821115610864578485fd5b818601915086601f830112610877578485fd5b815160206108876105c383610be1565b82815281810190858301895b8581101561090357815188018d603f8201126108ad578b8cfd5b85810151888111156108bb57fe5b6108cd601f8201601f19168801610bbd565b8181528f8c8385010111156108e0578d8efd5b6108ef828983018e8601610bff565b865250509284019290840190600101610893565b50509189015191975090945050508083111561091d578384fd5b505061080885828601610618565b60006020828403121561093c578081fd5b5035919050565b60008060208385031215610955578182fd5b823567ffffffffffffffff8082111561096c578384fd5b818501915085601f83011261097f578384fd5b81358181111561098d578485fd5b86602082850101111561099e578485fd5b60209290920196919550909350505050565b6000815180845260208085019450808401835b838110156109e85781516001600160a01b0316875295820195908201906001016109c3565b509495945050505050565b60008284528282602086013780602084860101526020601f19601f85011685010190509392505050565b6001600160a01b0391909116815260200190565b6000602082526102e660208301846109b0565b6020808252810182905260006001600160fb1b03831115610a63578081fd5b60208302808560408501379190910160400190815292915050565b602080825281810183905260009060408482028401810190840186845b87811015610b0757868403603f190183528135368a9003601e19018112610ac0578687fd5b8901803567ffffffffffffffff811115610ad8578788fd5b8036038b1315610ae6578788fd5b610af386828985016109f3565b955050509184019190840190600101610a9b565b5091979650505050505050565b60006040820160408352808551808352606085019150602092506060838202860101838801855b83811015610b8157878303605f1901855281518051808552610b62818987018a8501610bff565b95870195601f01601f1916939093018601925090850190600101610b3b565b505085810384870152610b9481886109b0565b98975050505050505050565b90815260200190565b6000602082526107136020830184866109f3565b60405181810167ffffffffffffffff81118282101715610bd957fe5b604052919050565b600067ffffffffffffffff821115610bf557fe5b5060209081020190565b60005b83811015610c1a578181015183820152602001610c02565b83811115610c29576000848401525b50505050565b6001600160a01b0381168114610c4457600080fd5b5056fea2646970667358221220a2231f0a96f65e2b42c2e005d76016d406779b49cf405c35bfd8309722ab8b9764736f6c63430007060033",
  "linkReferences": {},
  "deployedLinkReferences": {}
}