{
  "abi": [
    {
      "type": "constructor",
      "inputs": [
        {
          "name": "baseAsset_",
          "type": "address",
          "internalType": "contract IERC20"
        },
        {
          "name": "name_",
          "type": "string",
          "internalType": "string"
        },
        {
          "name": "symbol_",
          "type": "string",
          "internalType": "string"
        }
      ],
      "stateMutability": "nonpayable"
    },
    {
      "type": "function",
      "name": "allowance",
      "inputs": [
        {
          "name": "owner",
          "type": "address",
          "internalType": "address"
        },
        {
          "name": "spender",
          "type": "address",
          "internalType": "address"
        }
      ],
      "outputs": [
        {
          "name": "",
          "type": "uint256",
          "internalType": "uint256"
        }
      ],
      "stateMutability": "view"
    },
    {
      "type": "function",
      "name": "approve",
      "inputs": [
        {
          "name": "spender",
          "type": "address",
          "internalType": "address"
        },
        {
          "name": "value",
          "type": "uint256",
          "internalType": "uint256"
        }
      ],
      "outputs": [
        {
          "name": "",
          "type": "bool",
          "internalType": "bool"
        }
      ],
      "stateMutability": "nonpayable"
    },
    {
      "type": "function",
      "name": "asset",
      "inputs": [],
      "outputs": [
        {
          "name": "",
          "type": "address",
          "internalType": "address"
        }
      ],
      "stateMutability": "view"
    },
    {
      "type": "function",
      "name": "balanceOf",
      "inputs": [
        {
          "name": "account",
          "type": "address",
          "internalType": "address"
        }
      ],
      "outputs": [
        {
          "name": "",
          "type": "uint256",
          "internalType": "uint256"
        }
      ],
      "stateMutability": "view"
    },
    {
      "type": "function",
      "name": "claim",
      "inputs": [
        {
          "name": "_year",
          "type": "uint256",
          "internalType": "uint256"
        },
        {
          "name": "_month",
          "type": "uint256",
          "internalType": "uint256"
        },
        {
          "name": "_day",
          "type": "uint256",
          "internalType": "uint256"
        },
        {
          "name": "_receiverAddr",
          "type": "address",
          "internalType": "address"
        }
      ],
      "outputs": [
        {
          "name": "_shares",
          "type": "uint256",
          "internalType": "uint256"
        },
        {
          "name": "_assets",
          "type": "uint256",
          "internalType": "uint256"
        }
      ],
      "stateMutability": "nonpayable"
    },
    {
      "type": "function",
      "name": "claimWithdraw",
      "inputs": [
        {
          "name": "_period",
          "type": "uint256",
          "internalType": "uint256"
        }
      ],
      "outputs": [
        {
          "name": "_assets",
          "type": "uint256",
          "internalType": "uint256"
        }
      ],
      "stateMutability": "nonpayable"
    },
    {
      "type": "function",
      "name": "convertToAssets",
      "inputs": [
        {
          "name": "shares",
          "type": "uint256",
          "internalType": "uint256"
        }
      ],
      "outputs": [
        {
          "name": "",
          "type": "uint256",
          "internalType": "uint256"
        }
      ],
      "stateMutability": "view"
    },
    {
      "type": "function",
      "name": "convertToShares",
      "inputs": [
        {
          "name": "assets",
          "type": "uint256",
          "internalType": "uint256"
        }
      ],
      "outputs": [
        {
          "name": "",
          "type": "uint256",
          "internalType": "uint256"
        }
      ],
      "stateMutability": "view"
    },
    {
      "type": "function",
      "name": "decimals",
      "inputs": [],
      "outputs": [
        {
          "name": "",
          "type": "uint8",
          "internalType": "uint8"
        }
      ],
      "stateMutability": "view"
    },
    {
      "type": "function",
      "name": "deposit",
      "inputs": [
        {
          "name": "assets",
          "type": "uint256",
          "internalType": "uint256"
        },
        {
          "name": "receiver",
          "type": "address",
          "internalType": "address"
        }
      ],
      "outputs": [
        {
          "name": "",
          "type": "uint256",
          "internalType": "uint256"
        }
      ],
      "stateMutability": "nonpayable"
    },
    {
      "type": "function",
      "name": "lagDuration",
      "inputs": [],
      "outputs": [
        {
          "name": "",
          "type": "uint256",
          "internalType": "uint256"
        }
      ],
      "stateMutability": "view"
    },
    {
      "type": "function",
      "name": "maxDeposit",
      "inputs": [
        {
          "name": "",
          "type": "address",
          "internalType": "address"
        }
      ],
      "outputs": [
        {
          "name": "",
          "type": "uint256",
          "internalType": "uint256"
        }
      ],
      "stateMutability": "view"
    },
    {
      "type": "function",
      "name": "maxMint",
      "inputs": [
        {
          "name": "",
          "type": "address",
          "internalType": "address"
        }
      ],
      "outputs": [
        {
          "name": "",
          "type": "uint256",
          "internalType": "uint256"
        }
      ],
      "stateMutability": "view"
    },
    {
      "type": "function",
      "name": "maxRedeem",
      "inputs": [
        {
          "name": "owner",
          "type": "address",
          "internalType": "address"
        }
      ],
      "outputs": [
        {
          "name": "",
          "type": "uint256",
          "internalType": "uint256"
        }
      ],
      "stateMutability": "view"
    },
    {
      "type": "function",
      "name": "maxWithdraw",
      "inputs": [
        {
          "name": "owner",
          "type": "address",
          "internalType": "address"
        }
      ],
      "outputs": [
        {
          "name": "",
          "type": "uint256",
          "internalType": "uint256"
        }
      ],
      "stateMutability": "view"
    },
    {
      "type": "function",
      "name": "mint",
      "inputs": [
        {
          "name": "shares",
          "type": "uint256",
          "internalType": "uint256"
        },
        {
          "name": "receiver",
          "type": "address",
          "internalType": "address"
        }
      ],
      "outputs": [
        {
          "name": "",
          "type": "uint256",
          "internalType": "uint256"
        }
      ],
      "stateMutability": "nonpayable"
    },
    {
      "type": "function",
      "name": "name",
      "inputs": [],
      "outputs": [
        {
          "name": "",
          "type": "string",
          "internalType": "string"
        }
      ],
      "stateMutability": "view"
    },
    {
      "type": "function",
      "name": "pendingWithdrawAssets",
      "inputs": [
        {
          "name": "receiverAddr",
          "type": "address",
          "internalType": "address"
        },
        {
          "name": "period",
          "type": "uint256",
          "internalType": "uint256"
        }
      ],
      "outputs": [
        {
          "name": "assets",
          "type": "uint256",
          "internalType": "uint256"
        }
      ],
      "stateMutability": "view"
    },
    {
      "type": "function",
      "name": "pendingWithdrawShares",
      "inputs": [
        {
          "name": "receiverAddr",
          "type": "address",
          "internalType": "address"
        },
        {
          "name": "period",
          "type": "uint256",
          "internalType": "uint256"
        }
      ],
      "outputs": [
        {
          "name": "shares",
          "type": "uint256",
          "internalType": "uint256"
        }
      ],
      "stateMutability": "view"
    },
    {
      "type": "function",
      "name": "previewDeposit",
      "inputs": [
        {
          "name": "assets",
          "type": "uint256",
          "internalType": "uint256"
        }
      ],
      "outputs": [
        {
          "name": "",
          "type": "uint256",
          "internalType": "uint256"
        }
      ],
      "stateMutability": "view"
    },
    {
      "type": "function",
      "name": "previewMint",
      "inputs": [
        {
          "name": "shares",
          "type": "uint256",
          "internalType": "uint256"
        }
      ],
      "outputs": [
        {
          "name": "",
          "type": "uint256",
          "internalType": "uint256"
        }
      ],
      "stateMutability": "view"
    },
    {
      "type": "function",
      "name": "previewRedeem",
      "inputs": [
        {
          "name": "shares",
          "type": "uint256",
          "internalType": "uint256"
        }
      ],
      "outputs": [
        {
          "name": "",
          "type": "uint256",
          "internalType": "uint256"
        }
      ],
      "stateMutability": "view"
    },
    {
      "type": "function",
      "name": "previewWithdraw",
      "inputs": [
        {
          "name": "assets",
          "type": "uint256",
          "internalType": "uint256"
        }
      ],
      "outputs": [
        {
          "name": "",
          "type": "uint256",
          "internalType": "uint256"
        }
      ],
      "stateMutability": "view"
    },
    {
      "type": "function",
      "name": "redeem",
      "inputs": [
        {
          "name": "shares",
          "type": "uint256",
          "internalType": "uint256"
        },
        {
          "name": "receiver",
          "type": "address",
          "internalType": "address"
        },
        {
          "name": "owner",
          "type": "address",
          "internalType": "address"
        }
      ],
      "outputs": [
        {
          "name": "",
          "type": "uint256",
          "internalType": "uint256"
        }
      ],
      "stateMutability": "nonpayable"
    },
    {
      "type": "function",
      "name": "requestRedeem",
      "inputs": [
        {
          "name": "_shares",
          "type": "uint256",
          "internalType": "uint256"
        },
        {
          "name": "_receiver",
          "type": "address",
          "internalType": "address"
        },
        {
          "name": "_owner",
          "type": "address",
          "internalType": "address"
        }
      ],
      "outputs": [
        {
          "name": "_assets",
          "type": "uint256",
          "internalType": "uint256"
        },
        {
          "name": "_claimableEpoch",
          "type": "uint256",
          "internalType": "uint256"
        }
      ],
      "stateMutability": "nonpayable"
    },
    {
      "type": "function",
      "name": "requestTimestamps",
      "inputs": [
        {
          "name": "receiverAddr",
          "type": "address",
          "internalType": "address"
        },
        {
          "name": "period",
          "type": "uint256",
          "internalType": "uint256"
        }
      ],
      "outputs": [
        {
          "name": "timestamp",
          "type": "uint256",
          "internalType": "uint256"
        }
      ],
      "stateMutability": "view"
    },
    {
      "type": "function",
      "name": "setLagDuration",
      "inputs": [
        {
          "name": "_lagDuration",
          "type": "uint256",
          "internalType": "uint256"
        }
      ],
      "outputs": [],
      "stateMutability": "nonpayable"
    },
    {
      "type": "function",
      "name": "symbol",
      "inputs": [],
      "outputs": [
        {
          "name": "",
          "type": "string",
          "internalType": "string"
        }
      ],
      "stateMutability": "view"
    },
    {
      "type": "function",
      "name": "totalAssets",
      "inputs": [],
      "outputs": [
        {
          "name": "",
          "type": "uint256",
          "internalType": "uint256"
        }
      ],
      "stateMutability": "view"
    },
    {
      "type": "function",
      "name": "totalSupply",
      "inputs": [],
      "outputs": [
        {
          "name": "",
          "type": "uint256",
          "internalType": "uint256"
        }
      ],
      "stateMutability": "view"
    },
    {
      "type": "function",
      "name": "transfer",
      "inputs": [
        {
          "name": "to",
          "type": "address",
          "internalType": "address"
        },
        {
          "name": "value",
          "type": "uint256",
          "internalType": "uint256"
        }
      ],
      "outputs": [
        {
          "name": "",
          "type": "bool",
          "internalType": "bool"
        }
      ],
      "stateMutability": "nonpayable"
    },
    {
      "type": "function",
      "name": "transferFrom",
      "inputs": [
        {
          "name": "from",
          "type": "address",
          "internalType": "address"
        },
        {
          "name": "to",
          "type": "address",
          "internalType": "address"
        },
        {
          "name": "value",
          "type": "uint256",
          "internalType": "uint256"
        }
      ],
      "outputs": [
        {
          "name": "",
          "type": "bool",
          "internalType": "bool"
        }
      ],
      "stateMutability": "nonpayable"
    },
    {
      "type": "function",
      "name": "withdraw",
      "inputs": [
        {
          "name": "assets",
          "type": "uint256",
          "internalType": "uint256"
        },
        {
          "name": "receiver",
          "type": "address",
          "internalType": "address"
        },
        {
          "name": "owner",
          "type": "address",
          "internalType": "address"
        }
      ],
      "outputs": [
        {
          "name": "",
          "type": "uint256",
          "internalType": "uint256"
        }
      ],
      "stateMutability": "nonpayable"
    },
    {
      "type": "event",
      "name": "Approval",
      "inputs": [
        {
          "name": "owner",
          "type": "address",
          "indexed": true,
          "internalType": "address"
        },
        {
          "name": "spender",
          "type": "address",
          "indexed": true,
          "internalType": "address"
        },
        {
          "name": "value",
          "type": "uint256",
          "indexed": false,
          "internalType": "uint256"
        }
      ],
      "anonymous": false
    },
    {
      "type": "event",
      "name": "CompleteWithdraw",
      "inputs": [
        {
          "name": "receiver",
          "type": "address",
          "indexed": true,
          "internalType": "address"
        },
        {
          "name": "assets",
          "type": "uint256",
          "indexed": false,
          "internalType": "uint256"
        },
        {
          "name": "period",
          "type": "uint256",
          "indexed": false,
          "internalType": "uint256"
        }
      ],
      "anonymous": false
    },
    {
      "type": "event",
      "name": "Deposit",
      "inputs": [
        {
          "name": "sender",
          "type": "address",
          "indexed": true,
          "internalType": "address"
        },
        {
          "name": "owner",
          "type": "address",
          "indexed": true,
          "internalType": "address"
        },
        {
          "name": "assets",
          "type": "uint256",
          "indexed": false,
          "internalType": "uint256"
        },
        {
          "name": "shares",
          "type": "uint256",
          "indexed": false,
          "internalType": "uint256"
        }
      ],
      "anonymous": false
    },
    {
      "type": "event",
      "name": "Transfer",
      "inputs": [
        {
          "name": "from",
          "type": "address",
          "indexed": true,
          "internalType": "address"
        },
        {
          "name": "to",
          "type": "address",
          "indexed": true,
          "internalType": "address"
        },
        {
          "name": "value",
          "type": "uint256",
          "indexed": false,
          "internalType": "uint256"
        }
      ],
      "anonymous": false
    },
    {
      "type": "event",
      "name": "Withdraw",
      "inputs": [
        {
          "name": "sender",
          "type": "address",
          "indexed": true,
          "internalType": "address"
        },
        {
          "name": "receiver",
          "type": "address",
          "indexed": true,
          "internalType": "address"
        },
        {
          "name": "owner",
          "type": "address",
          "indexed": true,
          "internalType": "address"
        },
        {
          "name": "assets",
          "type": "uint256",
          "indexed": false,
          "internalType": "uint256"
        },
        {
          "name": "shares",
          "type": "uint256",
          "indexed": false,
          "internalType": "uint256"
        }
      ],
      "anonymous": false
    },
    {
      "type": "event",
      "name": "WithdrawRequest",
      "inputs": [
        {
          "name": "sender",
          "type": "address",
          "indexed": true,
          "internalType": "address"
        },
        {
          "name": "receiver",
          "type": "address",
          "indexed": true,
          "internalType": "address"
        },
        {
          "name": "owner",
          "type": "address",
          "indexed": true,
          "internalType": "address"
        },
        {
          "name": "period",
          "type": "uint256",
          "indexed": false,
          "internalType": "uint256"
        },
        {
          "name": "assets",
          "type": "uint256",
          "indexed": false,
          "internalType": "uint256"
        },
        {
          "name": "shares",
          "type": "uint256",
          "indexed": false,
          "internalType": "uint256"
        }
      ],
      "anonymous": false
    },
    {
      "type": "event",
      "name": "WithdrawalProcessed",
      "inputs": [
        {
          "name": "assetsAmount",
          "type": "uint256",
          "indexed": false,
          "internalType": "uint256"
        },
        {
          "name": "processedOn",
          "type": "uint256",
          "indexed": false,
          "internalType": "uint256"
        },
        {
          "name": "receiverAddr",
          "type": "address",
          "indexed": false,
          "internalType": "address"
        },
        {
          "name": "requestedOn",
          "type": "uint256",
          "indexed": false,
          "internalType": "uint256"
        },
        {
          "name": "wasBlacklisted",
          "type": "bool",
          "indexed": false,
          "internalType": "bool"
        }
      ],
      "anonymous": false
    },
    {
      "type": "event",
      "name": "WithdrawalRequested",
      "inputs": [
        {
          "name": "ownerAddr",
          "type": "address",
          "indexed": false,
          "internalType": "address"
        },
        {
          "name": "receiverAddr",
          "type": "address",
          "indexed": false,
          "internalType": "address"
        },
        {
          "name": "shares",
          "type": "uint256",
          "indexed": false,
          "internalType": "uint256"
        },
        {
          "name": "assets",
          "type": "uint256",
          "indexed": false,
          "internalType": "uint256"
        },
        {
          "name": "fee",
          "type": "uint256",
          "indexed": false,
          "internalType": "uint256"
        },
        {
          "name": "year",
          "type": "uint256",
          "indexed": false,
          "internalType": "uint256"
        },
        {
          "name": "month",
          "type": "uint256",
          "indexed": false,
          "internalType": "uint256"
        },
        {
          "name": "day",
          "type": "uint256",
          "indexed": false,
          "internalType": "uint256"
        }
      ],
      "anonymous": false
    },
    {
      "type": "error",
      "name": "ERC20InsufficientAllowance",
      "inputs": [
        {
          "name": "spender",
          "type": "address",
          "internalType": "address"
        },
        {
          "name": "allowance",
          "type": "uint256",
          "internalType": "uint256"
        },
        {
          "name": "needed",
          "type": "uint256",
          "internalType": "uint256"
        }
      ]
    },
    {
      "type": "error",
      "name": "ERC20InsufficientBalance",
      "inputs": [
        {
          "name": "sender",
          "type": "address",
          "internalType": "address"
        },
        {
          "name": "balance",
          "type": "uint256",
          "internalType": "uint256"
        },
        {
          "name": "needed",
          "type": "uint256",
          "internalType": "uint256"
        }
      ]
    },
    {
      "type": "error",
      "name": "ERC20InvalidApprover",
      "inputs": [
        {
          "name": "approver",
          "type": "address",
          "internalType": "address"
        }
      ]
    },
    {
      "type": "error",
      "name": "ERC20InvalidReceiver",
      "inputs": [
        {
          "name": "receiver",
          "type": "address",
          "internalType": "address"
        }
      ]
    },
    {
      "type": "error",
      "name": "ERC20InvalidSender",
      "inputs": [
        {
          "name": "sender",
          "type": "address",
          "internalType": "address"
        }
      ]
    },
    {
      "type": "error",
      "name": "ERC20InvalidSpender",
      "inputs": [
        {
          "name": "spender",
          "type": "address",
          "internalType": "address"
        }
      ]
    },
    {
      "type": "error",
      "name": "ERC4626ExceededMaxDeposit",
      "inputs": [
        {
          "name": "receiver",
          "type": "address",
          "internalType": "address"
        },
        {
          "name": "assets",
          "type": "uint256",
          "internalType": "uint256"
        },
        {
          "name": "max",
          "type": "uint256",
          "internalType": "uint256"
        }
      ]
    },
    {
      "type": "error",
      "name": "ERC4626ExceededMaxMint",
      "inputs": [
        {
          "name": "receiver",
          "type": "address",
          "internalType": "address"
        },
        {
          "name": "shares",
          "type": "uint256",
          "internalType": "uint256"
        },
        {
          "name": "max",
          "type": "uint256",
          "internalType": "uint256"
        }
      ]
    },
    {
      "type": "error",
      "name": "ERC4626ExceededMaxRedeem",
      "inputs": [
        {
          "name": "owner",
          "type": "address",
          "internalType": "address"
        },
        {
          "name": "shares",
          "type": "uint256",
          "internalType": "uint256"
        },
        {
          "name": "max",
          "type": "uint256",
          "internalType": "uint256"
        }
      ]
    },
    {
      "type": "error",
      "name": "ERC4626ExceededMaxWithdraw",
      "inputs": [
        {
          "name": "owner",
          "type": "address",
          "internalType": "address"
        },
        {
          "name": "assets",
          "type": "uint256",
          "internalType": "uint256"
        },
        {
          "name": "max",
          "type": "uint256",
          "internalType": "uint256"
        }
      ]
    },
    {
      "type": "error",
      "name": "InvalidPeriod",
      "inputs": []
    },
    {
      "type": "error",
      "name": "NoPendingWithdrawAssets",
      "inputs": []
    },
    {
      "type": "error",
      "name": "NoPendingWithdrawShares",
      "inputs": []
    },
    {
      "type": "error",
      "name": "SafeERC20FailedOperation",
      "inputs": [
        {
          "name": "token",
          "type": "address",
          "internalType": "address"
        }
      ]
    },
    {
      "type": "error",
      "name": "TooEarly",
      "inputs": []
    }
  ],
  "bytecode": {
    "object": "0x60c080604052346103d757611b1a803803809161001c82856103db565b83398101906060818303126103d7578051906001600160a01b038216908183036103d75760208101516001600160401b0381116103d7578461005f9183016103fe565b60408201519094906001600160401b0381116103d75761007f92016103fe565b83519092906001600160401b0381116102e857600354600181811c911680156103cd575b60208210146102ca57601f811161036a575b50602094601f8211600114610307579481929394955f926102fc575b50508160011b915f199060031b1c1916176003555b82516001600160401b0381116102e857600454600181811c911680156102de575b60208210146102ca57601f8111610267575b506020601f821160011461020457819293945f926101f9575b50508160011b915f199060031b1c1916176004555b60405f8151936020850163313ce56760e01b81526004865261016a6024876103db565b8551915afa5f519083604052806101ee575b806101e3575b156101db5760ff1660015b156101d3575b60a052608052620151806005556116c6908161045482396080518181816106c201528181610a9b01528181610e5901526112e1015260a051816107050152f35b506012610193565b505f8061018d565b5060ff811115610182565b5060203d101561017c565b015190505f80610132565b601f1982169060045f52805f20915f5b81811061024f57509583600195969710610237575b505050811b01600455610147565b01515f1960f88460031b161c191690555f8080610229565b9192602060018192868b015181550194019201610214565b60045f527f8a35acfbc15ff81a39ae7d344fd709f28e8600b4aa8c65c6b64bfe7fe36bd19b601f830160051c810191602084106102c0575b601f0160051c01905b8181106102b55750610119565b5f81556001016102a8565b909150819061029f565b634e487b7160e01b5f52602260045260245ffd5b90607f1690610107565b634e487b7160e01b5f52604160045260245ffd5b015190505f806100d1565b601f1982169560035f52805f20915f5b8881106103525750836001959697981061033a575b505050811b016003556100e6565b01515f1960f88460031b161c191690555f808061032c565b91926020600181928685015181550194019201610317565b60035f527fc2575a0e9e593c00f959f8c92f12db2869c3395a3b0502d05e2516446f71f85b601f830160051c810191602084106103c3575b601f0160051c01905b8181106103b857506100b5565b5f81556001016103ab565b90915081906103a2565b90607f16906100a3565b5f80fd5b601f909101601f19168101906001600160401b038211908210176102e857604052565b81601f820112156103d7578051906001600160401b0382116102e85760405192610432601f8401601f1916602001856103db565b828452602083830101116103d757815f9260208093018386015e830101529056fe60806040526004361015610011575f80fd5b5f3560e01c806301e1d1141461093f57806306fdde031461088457806307a2d13a146106a8578063095ea7b3146107dc5780630a28a477146107be57806318160ddd146107a157806323b872dd1461076957806324e86d671461074c578063313ce567146106f157806338d52e0f146106ad578063402d267d146102875780634cdad506146106a85780636e553f651461067557806370a08231146102215780637d41c86e1461060a5780637e5f1f57146105c6578063828ea5ee1461058257806394bf804d1461054f57806395d89b411461044b578063a9059cbb1461041a578063b045aeef14610401578063b13acedd14610376578063b3c9e83d14610332578063b3d7f6b914610314578063b460af94146102a5578063ba0876521461028c578063c63d75b614610287578063c6e6f59214610184578063ce96cb7714610261578063d905777e14610221578063dd62ed3e146101d1578063ed55f985146101895763ef8b30f714610184575f80fd5b610a2c565b346101cd5760403660031901126101cd576001600160a01b036101aa6109a1565b165f52600660205260405f206024355f52602052602060405f2054604051908152f35b5f80fd5b346101cd5760403660031901126101cd576101ea6109a1565b6101f26109b7565b6001600160a01b039182165f908152600160209081526040808320949093168252928352819020549051908152f35b346101cd5760203660031901126101cd57602061025961023f6109a1565b6001600160a01b03165f9081526020819052604090205490565b604051908152f35b346101cd5760203660031901126101cd57602061025961028261023f6109a1565b610c44565b6109cd565b346101cd57602061025961029f366109f2565b91610bb7565b346101cd576102b3366109f2565b90916102d26102828360018060a01b03165f525f60205260405f205490565b8082116102f35750602092816102ea61025993610c71565b93849233611361565b91633fa733bb60e21b5f5260018060a01b031660045260245260445260645ffd5b346101cd5760203660031901126101cd576020610259600435610c16565b346101cd5760803660031901126101cd576064356001600160a01b03811681036101cd5761036a604091604435602435600435610b1d565b82519182526020820152f35b346101cd5760203660031901126101cd57600435620151806103a061039a42610f5f565b916110e9565b048110156103f257806103b560209233611235565b5091905060405190828252838201527fa7952fcf1aa05ca494ca81b36018d749ac933a4f76e87ccdcd31cc6a202a785e60403392a2604051908152f35b6302e8f35960e31b5f5260045ffd5b346101cd5760203660031901126101cd57600435600555005b346101cd5760403660031901126101cd576104406104366109a1565b6024359033610d6f565b602060405160018152f35b346101cd575f3660031901126101cd576040515f6004548060011c90600181168015610545575b6020831081146105315782855290811561050d57506001146104af575b6104ab8361049f81850382610a4a565b60405191829182610959565b0390f35b91905060045f527f8a35acfbc15ff81a39ae7d344fd709f28e8600b4aa8c65c6b64bfe7fe36bd19b915f905b8082106104f35750909150810160200161049f61048f565b9192600181602092548385880101520191019092916104db565b60ff191660208086019190915291151560051b8401909101915061049f905061048f565b634e487b7160e01b5f52602260045260245ffd5b91607f1691610472565b346101cd5760403660031901126101cd5760206004356102596105706109b7565b9161057a81610c16565b809333610e2c565b346101cd5760403660031901126101cd576001600160a01b036105a36109a1565b165f52600760205260405f206024355f52602052602060405f2054604051908152f35b346101cd5760403660031901126101cd576001600160a01b036105e76109a1565b165f52600860205260405f206024355f52602052602060405f2054604051908152f35b346101cd57604061062661061d366109f2565b90809392610bb7565b906005549061063d6106388342610b10565b610f5f565b9061064b82828596956110e9565b9415610662575b5050505082519182526020820152f35b42945061066e93610b1d565b8580610652565b346101cd5760403660031901126101cd5760206004356102596106966109b7565b61069f83610c9f565b92839133610e2c565b610983565b346101cd575f3660031901126101cd576040517f00000000000000000000000000000000000000000000000000000000000000006001600160a01b03168152602090f35b346101cd575f3660031901126101cd5760ff7f00000000000000000000000000000000000000000000000000000000000000001660ff811161073857602090604051908152f35b634e487b7160e01b5f52601160045260245ffd5b346101cd575f3660031901126101cd576020600554604051908152f35b346101cd5760603660031901126101cd576104406107856109a1565b61078d6109b7565b6044359161079c833383610ccc565b610d6f565b346101cd575f3660031901126101cd576020600254604051908152f35b346101cd5760203660031901126101cd576020610259600435610c71565b346101cd5760403660031901126101cd576107f56109a1565b602435903315610871576001600160a01b031690811561085e57335f52600160205260405f20825f526020528060405f20556040519081527f8c5be1e5ebec7d5bd14f71427d1e84f3dd0314c0f7b2291e5b200ac8c7c3b92560203392a3602060405160018152f35b634a1406b160e11b5f525f60045260245ffd5b63e602df0560e01b5f525f60045260245ffd5b346101cd575f3660031901126101cd576040515f6003548060011c90600181168015610935575b6020831081146105315782855290811561050d57506001146108d7576104ab8361049f81850382610a4a565b91905060035f527fc2575a0e9e593c00f959f8c92f12db2869c3395a3b0502d05e2516446f71f85b915f905b80821061091b5750909150810160200161049f61048f565b919260018160209254838588010152019101909291610903565b91607f16916108ab565b346101cd575f3660031901126101cd576020610259610a80565b602060409281835280519182918282860152018484015e5f828201840152601f01601f1916010190565b346101cd5760203660031901126101cd576020610259600435610c44565b600435906001600160a01b03821682036101cd57565b602435906001600160a01b03821682036101cd57565b346101cd5760203660031901126101cd576109e66109a1565b5060206040515f198152f35b60609060031901126101cd57600435906024356001600160a01b03811681036101cd57906044356001600160a01b03811681036101cd5790565b346101cd5760203660031901126101cd576020610259600435610c9f565b90601f8019910116810190811067ffffffffffffffff821117610a6c57604052565b634e487b7160e01b5f52604160045260245ffd5b6040516370a0823160e01b81523060048201526020816024817f00000000000000000000000000000000000000000000000000000000000000006001600160a01b03165afa908115610b05575f91610ad6575090565b90506020813d602011610afd575b81610af160209383610a4a565b810103126101cd575190565b3d9150610ae4565b6040513d5f823e3d90fd5b9190820180921161073857565b9391909293600554610b90575b62015180610b5f7fa6f30f7bcb55dd97fe6efdedd57aa5ee608cf66171304f643b791c6f37f495899360a096610b66946110e9565b0485611235565b81959296604051928352426020840152600180851b0316604083015260608201525f6080820152a1565b90610b9c8185846110e9565b4210610ba85790610b2a565b63085de62560e01b5f5260045ffd5b90610bd28360018060a01b03165f525f60205260405f205490565b808311610bf4575090610bf191610be882610c44565b93849133611361565b90565b8284632e52afbb60e21b5f5260018060a01b031660045260245260445260645ffd5b610c1e610a80565b9060018201809211610738576002546001810180911161073857610bf192600192611527565b610c4c610a80565b9060018201809211610738576002546001810180911161073857610bf1925f92611527565b600254906001820180921161073857610c88610a80565b6001810180911161073857610bf192600192611527565b600254906001820180921161073857610cb6610a80565b6001810180911161073857610bf1925f92611527565b6001600160a01b039081165f818152600160209081526040808320948616835293905291909120549291905f198410610d06575b50505050565b828410610d4c578015610871576001600160a01b0382161561085e575f52600160205260405f209060018060a01b03165f5260205260405f20910390555f808080610d00565b508290637dc7a0d960e11b5f5260018060a01b031660045260245260445260645ffd5b6001600160a01b0316908115610e19576001600160a01b0316918215610e0657815f525f60205260405f2054818110610ded57817fddf252ad1be2c89b69c2b068fc378daa952ba7f163c4a11628f55a4df523b3ef92602092855f525f84520360405f2055845f525f825260405f20818154019055604051908152a3565b8263391434e360e21b5f5260045260245260445260645ffd5b63ec442f0560e01b5f525f60045260245ffd5b634b637e8f60e11b5f525f60045260245ffd5b6040516323b872dd60e01b5f9081526001600160a01b0392831660048190523060245260448690529493927f000000000000000000000000000000000000000000000000000000000000000016919060209060648180865af19060015f5114821615610f3e575b6040525f60605215610f2c57506001600160a01b0316928315610e06577fdcbc1c05240f31ff3ad067ef1ee35ce4997762752e3a095284754544f4c709d79181610ee1604093600254610b10565b600255855f525f602052825f20818154019055855f7fddf252ad1be2c89b69c2b068fc378daa952ba7f163c4a11628f55a4df523b3ef60208651858152a382519182526020820152a3565b635274afe760e01b5f5260045260245ffd5b906001811516610f5657823b15153d15161690610e93565b503d5f823e3d90fd5b62015180900462010bd981019062010bd982125f8212908015821691151617610738576226496501905f62253d8c83129112908015821691151617610738578060021b6004810582036107385762023ab19005908162023ab1029062023ab1820583036107385760038201915f600384129112908015821691151617610738576004610fec9205906115d9565b9060018201600181125f84129080158216911516176107385780610fa00290610fa08205036107385762164b09611031910592600461102a856115b4565b05906115d9565b91601f8301925f601f8512911290801582169115161761073857826050026050810584036107385761098f9005928361098f029061098f8205850361073857605061107d9205906115d9565b92600b81059060028101905f6002831291129080158216911516176107385781600c02600c81058303610738576110b3916115d9565b9260301981019081136001166107385780606402906064820503610738576110e3926110de91611599565b611599565b91909192565b91906107b2831061120857617d4a198201918213600116610738576112c083016112c08112925f85129380158516908515161761073857600461113761113e61114394600c611137886115c7565b0590611599565b6115b4565b600119820182811360011661073857600c61115d846115c7565b05600c810290808205600c14901517156107385761117a916115d9565b8061016f029061016f8205036107385761132491600c61119b920590611599565b9301916113248312801582169115161761073857606491600c6111376111c0936115c7565b0590816003029160038305036107385760046111dd9205906115d9565b62253d8b19810190811360011661073857620151808102908082046201518014901517156107385790565b60405162461bcd60e51b815260206004820152600560248201526422b93937b960d91b6044820152606490fd5b91909160018060a01b031691825f52600660205260405f20815f5260205260405f205491821561135257835f52600760205260405f20825f5260205260405f2054938415611343575f8181526008602090815260408083208684528083528184208054868652600685528386208987528552838620869055868652600785528386209886529784528285208590559083528390555163a9059cbb60e01b835260049390935260248690527f00000000000000000000000000000000000000000000000000000000000000006001600160a01b0316929160448180865af19060015f511482161561132b575b60405215610f2c5750565b906001811516610f5657823b15153d15161690611320565b63c84f087960e01b5f5260045ffd5b635c56fe4d60e01b5f5260045ffd5b9394936001600160a01b03808416949082169390918790868603611516575b5050508315610e1957835f525f60205260405f20548681106114fb5791849391877ff60d67b14614c8984f880fd3b3bc7ddc3c2913656340f454bf0c7431152bbda697988695610100985f525f6020520360405f205580600254036002555f857fddf252ad1be2c89b69c2b068fc378daa952ba7f163c4a11628f55a4df523b3ef6020604051858152a3606061141b61063860055442610b10565b97919590967f4c948e0796277db886e0e3cc43f49c0d3096770520db8b66a179269a2f02b97d620151806114508b8b8b6110e9565b049260018060a01b0316948593845f52600660205260405f20815f5260205260405f2061147e8a8254610b10565b9055845f52600760205260405f20815f5260205260405f206114a1898254610b10565b9055845f52600860205260405f20815f526020524260405f2055604051908152886020820152876040820152a46040519687526020870152604086015260608501525f608085015260a084015260c083015260e0820152a1565b86908563391434e360e21b5f5260045260245260445260645ffd5b61151f92610ccc565b5f8681611380565b92916115348183866115f1565b92600481101561158557600180911614918261155a575b5050610bf19250151590610b10565b908092501561157157610bf1930915155f8061154b565b634e487b7160e01b5f52601260045260245ffd5b634e487b7160e01b5f52602160045260245ffd5b9190915f838201938412911290801582169115161761073857565b90816105b502916105b583050361073857565b90600d19820191821360011661073857565b81810392915f13801582851316918412161761073857565b90915f198383099280830292838086109503948086039514611682578483111561166a5790829109815f0382168092046002816003021880820260020302808202600203028082026002030280820260020302808202600203028091026002030293600183805f03040190848311900302920304170290565b82634e487b715f52156003026011186020526024601cfd5b50509150811561157157049056fea26469706673582212203ea4a3d97c627d9f596c807ce6b33e23ae434e7af6351f31b9d1f827f2f3ee4964736f6c634300081e0033",
    "linkReferences": {}
  },
  "methodIdentifiers": {
    "allowance(address,address)": "dd62ed3e",
    "approve(address,uint256)": "095ea7b3",
    "asset()": "38d52e0f",
    "balanceOf(address)": "70a08231",
    "claim(uint256,uint256,uint256,address)": "b3c9e83d",
    "claimWithdraw(uint256)": "b13acedd",
    "convertToAssets(uint256)": "07a2d13a",
    "convertToShares(uint256)": "c6e6f592",
    "decimals()": "313ce567",
    "deposit(uint256,address)": "6e553f65",
    "lagDuration()": "24e86d67",
    "maxDeposit(address)": "402d267d",
    "maxMint(address)": "c63d75b6",
    "maxRedeem(address)": "d905777e",
    "maxWithdraw(address)": "ce96cb77",
    "mint(uint256,address)": "94bf804d",
    "name()": "06fdde03",
    "pendingWithdrawAssets(address,uint256)": "ed55f985",
    "pendingWithdrawShares(address,uint256)": "828ea5ee",
    "previewDeposit(uint256)": "ef8b30f7",
    "previewMint(uint256)": "b3d7f6b9",
    "previewRedeem(uint256)": "4cdad506",
    "previewWithdraw(uint256)": "0a28a477",
    "redeem(uint256,address,address)": "ba087652",
    "requestRedeem(uint256,address,address)": "7d41c86e",
    "requestTimestamps(address,uint256)": "7e5f1f57",
    "setLagDuration(uint256)": "b045aeef",
    "symbol()": "95d89b41",
    "totalAssets()": "01e1d114",
    "totalSupply()": "18160ddd",
    "transfer(address,uint256)": "a9059cbb",
    "transferFrom(address,address,uint256)": "23b872dd",
    "withdraw(uint256,address,address)": "b460af94"
  },
  "id": 16
}